{
  "contractName": "CourseMarketplace",
  "abi": [
    {
      "inputs": [],
      "stateMutability": "nonpayable",
      "type": "constructor"
    },
    {
      "inputs": [],
      "name": "CourseHasOwner",
      "type": "error"
    },
    {
      "inputs": [],
      "name": "CourseIsNotCreated",
      "type": "error"
    },
    {
      "inputs": [],
      "name": "InvalidState",
      "type": "error"
    },
    {
      "inputs": [],
      "name": "OnlyOwner",
      "type": "error"
    },
    {
      "inputs": [],
      "name": "SenderIsNotCourseOwner",
      "type": "error"
    },
    {
      "inputs": [],
      "name": "isStopped",
      "outputs": [
        {
          "internalType": "bool",
          "name": "",
          "type": "bool"
        }
      ],
      "stateMutability": "view",
      "type": "function",
      "constant": true
    },
    {
      "stateMutability": "payable",
      "type": "receive",
      "payable": true
    },
    {
      "inputs": [
        {
          "internalType": "bytes32",
          "name": "courseHash",
          "type": "bytes32"
        }
      ],
      "name": "repurchaseCourse",
      "outputs": [],
      "stateMutability": "payable",
      "type": "function",
      "payable": true
    },
    {
      "inputs": [
        {
          "internalType": "bytes32",
          "name": "courseHash",
          "type": "bytes32"
        }
      ],
      "name": "activateCourse",
      "outputs": [],
      "stateMutability": "nonpayable",
      "type": "function"
    },
    {
      "inputs": [
        {
          "internalType": "bytes32",
          "name": "courseHash",
          "type": "bytes32"
        }
      ],
      "name": "deactivateCourse",
      "outputs": [],
      "stateMutability": "nonpayable",
      "type": "function"
    },
    {
      "inputs": [],
      "name": "addFunds",
      "outputs": [],
      "stateMutability": "payable",
      "type": "function",
      "payable": true
    },
    {
      "inputs": [
        {
          "internalType": "uint256",
          "name": "amount",
          "type": "uint256"
        }
      ],
      "name": "withdraw",
      "outputs": [],
      "stateMutability": "payable",
      "type": "function",
      "payable": true
    },
    {
      "inputs": [],
      "name": "emergencyWithdraw",
      "outputs": [],
      "stateMutability": "nonpayable",
      "type": "function"
    },
    {
      "inputs": [],
      "name": "selfDestruct",
      "outputs": [],
      "stateMutability": "nonpayable",
      "type": "function"
    },
    {
      "inputs": [],
      "name": "stopContract",
      "outputs": [],
      "stateMutability": "nonpayable",
      "type": "function"
    },
    {
      "inputs": [],
      "name": "resumeContract",
      "outputs": [],
      "stateMutability": "nonpayable",
      "type": "function"
    },
    {
      "inputs": [
        {
          "internalType": "bytes16",
          "name": "courseId",
          "type": "bytes16"
        },
        {
          "internalType": "bytes32",
          "name": "proof",
          "type": "bytes32"
        }
      ],
      "name": "purchaseCourse",
      "outputs": [],
      "stateMutability": "payable",
      "type": "function",
      "payable": true
    },
    {
      "inputs": [
        {
          "internalType": "address",
          "name": "newOwner",
          "type": "address"
        }
      ],
      "name": "transferOwnership",
      "outputs": [],
      "stateMutability": "nonpayable",
      "type": "function"
    },
    {
      "inputs": [],
      "name": "getCourseCount",
      "outputs": [
        {
          "internalType": "uint256",
          "name": "",
          "type": "uint256"
        }
      ],
      "stateMutability": "view",
      "type": "function",
      "constant": true
    },
    {
      "inputs": [
        {
          "internalType": "uint256",
          "name": "index",
          "type": "uint256"
        }
      ],
      "name": "getCourseHashAtIndex",
      "outputs": [
        {
          "internalType": "bytes32",
          "name": "",
          "type": "bytes32"
        }
      ],
      "stateMutability": "view",
      "type": "function",
      "constant": true
    },
    {
      "inputs": [
        {
          "internalType": "bytes32",
          "name": "courseHash",
          "type": "bytes32"
        }
      ],
      "name": "getCourseByHash",
      "outputs": [
        {
          "components": [
            {
              "internalType": "uint256",
              "name": "id",
              "type": "uint256"
            },
            {
              "internalType": "uint256",
              "name": "price",
              "type": "uint256"
            },
            {
              "internalType": "bytes32",
              "name": "proof",
              "type": "bytes32"
            },
            {
              "internalType": "address",
              "name": "owner",
              "type": "address"
            },
            {
              "internalType": "enum CourseMarketplace.State",
              "name": "state",
              "type": "uint8"
            }
          ],
          "internalType": "struct CourseMarketplace.Course",
          "name": "",
          "type": "tuple"
        }
      ],
      "stateMutability": "view",
      "type": "function",
      "constant": true
    },
    {
      "inputs": [],
      "name": "getContractOwner",
      "outputs": [
        {
          "internalType": "address",
          "name": "",
          "type": "address"
        }
      ],
      "stateMutability": "view",
      "type": "function",
      "constant": true
    }
  ],
  "bytecode": "0x608060405260008060006101000a81548160ff02191690831515021790555034801561002a57600080fd5b5061003a3361003f60201b60201c565b610083565b80600460006101000a81548173ffffffffffffffffffffffffffffffffffffffff021916908373ffffffffffffffffffffffffffffffffffffffff16021790555050565b6117e1806100926000396000f3fe6080604052600436106100f75760003560e01c8063935d7e6d1161008a578063c4bc5da511610059578063c4bc5da5146102c0578063d76821cb146102d7578063db2e21bc146102f3578063f2fde38b1461030a576100fe565b8063935d7e6d1461024b57806396cfda06146102745780639cb8a26a1461029f578063a26759cb146102b6576100fe565b8063442890d5116100c6578063442890d51461018a5780636136e1eb146101b557806362e4e6ac146101d15780636d11290b1461020e576100fe565b806312253a6c146101035780632e1a7d4d1461011a57806339262572146101365780633f683b6a1461015f576100fe565b366100fe57005b600080fd5b34801561010f57600080fd5b50610118610333565b005b610134600480360381019061012f9190611176565b6103bb565b005b34801561014257600080fd5b5061015d600480360381019061015891906111d9565b61048d565b005b34801561016b57600080fd5b50610174610607565b6040516101819190611221565b60405180910390f35b34801561019657600080fd5b5061019f610618565b6040516101ac919061127d565b60405180910390f35b6101cf60048036038101906101ca91906111d9565b610642565b005b3480156101dd57600080fd5b506101f860048036038101906101f391906111d9565b610797565b60405161020591906113a4565b60405180910390f35b34801561021a57600080fd5b5061023560048036038101906102309190611176565b610873565b60405161024291906113ce565b60405180910390f35b34801561025757600080fd5b50610272600480360381019061026d91906111d9565b610890565b005b34801561028057600080fd5b50610289610ae9565b60405161029691906113f8565b60405180910390f35b3480156102ab57600080fd5b506102b4610af3565b005b6102be610bb1565b005b3480156102cc57600080fd5b506102d5610bb3565b005b6102f160048036038101906102ec919061146b565b610c3b565b005b3480156102ff57600080fd5b50610308610df4565b005b34801561031657600080fd5b50610331600480360381019061032c91906114d7565b610f48565b005b61033b610618565b73ffffffffffffffffffffffffffffffffffffffff163373ffffffffffffffffffffffffffffffffffffffff161461039f576040517f5fc483c500000000000000000000000000000000000000000000000000000000815260040160405180910390fd5b60016000806101000a81548160ff021916908315150217905550565b6000600460009054906101000a900473ffffffffffffffffffffffffffffffffffffffff1673ffffffffffffffffffffffffffffffffffffffff168260405161040390611535565b60006040518083038185875af1925050503d8060008114610440576040519150601f19603f3d011682016040523d82523d6000602084013e610445565b606091505b5050905080610489576040517f08c379a0000000000000000000000000000000000000000000000000000000008152600401610480906115a7565b60405180910390fd5b5050565b610495610618565b73ffffffffffffffffffffffffffffffffffffffff163373ffffffffffffffffffffffffffffffffffffffff16146104f9576040517f5fc483c500000000000000000000000000000000000000000000000000000000815260040160405180910390fd5b60008054906101000a900460ff161561051157600080fd5b61051a81610fc0565b610550576040517f4db0c48300000000000000000000000000000000000000000000000000000000815260040160405180910390fd5b60006001600083815260200190815260200160002090506000600281111561057b5761057a6112c5565b5b8160030160149054906101000a900460ff16600281111561059f5761059e6112c5565b5b146105d6576040517fbaf3f0f700000000000000000000000000000000000000000000000000000000815260040160405180910390fd5b60018160030160146101000a81548160ff021916908360028111156105fe576105fd6112c5565b5b02179055505050565b60008054906101000a900460ff1681565b6000600460009054906101000a900473ffffffffffffffffffffffffffffffffffffffff16905090565b60008054906101000a900460ff161561065a57600080fd5b61066381610fc0565b610699576040517f4db0c48300000000000000000000000000000000000000000000000000000000815260040160405180910390fd5b6106a28161102f565b6106d8576040517fcce31cc400000000000000000000000000000000000000000000000000000000815260040160405180910390fd5b6000600160008381526020019081526020016000209050600280811115610702576107016112c5565b5b8160030160149054906101000a900460ff166002811115610726576107256112c5565b5b1461075d576040517fbaf3f0f700000000000000000000000000000000000000000000000000000000815260040160405180910390fd5b60008160030160146101000a81548160ff02191690836002811115610785576107846112c5565b5b02179055503481600101819055505050565b61079f6110e1565b600160008381526020019081526020016000206040518060a00160405290816000820154815260200160018201548152602001600282015481526020016003820160009054906101000a900473ffffffffffffffffffffffffffffffffffffffff1673ffffffffffffffffffffffffffffffffffffffff1673ffffffffffffffffffffffffffffffffffffffff1681526020016003820160149054906101000a900460ff166002811115610856576108556112c5565b5b6002811115610868576108676112c5565b5b815250509050919050565b600060026000838152602001908152602001600020549050919050565b60008054906101000a900460ff16156108a857600080fd5b6108b0610618565b73ffffffffffffffffffffffffffffffffffffffff163373ffffffffffffffffffffffffffffffffffffffff1614610914576040517f5fc483c500000000000000000000000000000000000000000000000000000000815260040160405180910390fd5b61091d81610fc0565b610953576040517f4db0c48300000000000000000000000000000000000000000000000000000000815260040160405180910390fd5b60006001600083815260200190815260200160002090506000600281111561097e5761097d6112c5565b5b8160030160149054906101000a900460ff1660028111156109a2576109a16112c5565b5b146109d9576040517fbaf3f0f700000000000000000000000000000000000000000000000000000000815260040160405180910390fd5b60008160030160009054906101000a900473ffffffffffffffffffffffffffffffffffffffff1673ffffffffffffffffffffffffffffffffffffffff168260010154604051610a2790611535565b60006040518083038185875af1925050503d8060008114610a64576040519150601f19603f3d011682016040523d82523d6000602084013e610a69565b606091505b5050905080610aad576040517f08c379a0000000000000000000000000000000000000000000000000000000008152600401610aa490611613565b60405180910390fd5b60028260030160146101000a81548160ff02191690836002811115610ad557610ad46112c5565b5b021790555060008260010181905550505050565b6000600354905090565b60008054906101000a900460ff16610b0a57600080fd5b610b12610618565b73ffffffffffffffffffffffffffffffffffffffff163373ffffffffffffffffffffffffffffffffffffffff1614610b76576040517f5fc483c500000000000000000000000000000000000000000000000000000000815260040160405180910390fd5b600460009054906101000a900473ffffffffffffffffffffffffffffffffffffffff1673ffffffffffffffffffffffffffffffffffffffff16ff5b565b610bbb610618565b73ffffffffffffffffffffffffffffffffffffffff163373ffffffffffffffffffffffffffffffffffffffff1614610c1f576040517f5fc483c500000000000000000000000000000000000000000000000000000000815260040160405180910390fd5b60008060006101000a81548160ff021916908315150217905550565b60008054906101000a900460ff1615610c5357600080fd5b60008233604051602001610c6892919061169c565b604051602081830303815290604052805190602001209050610c898161102f565b15610cc0576040517fb0fc2d9700000000000000000000000000000000000000000000000000000000815260040160405180910390fd5b600060036000815480929190610cd5906116f7565b9190505590508160026000838152602001908152602001600020819055506040518060a001604052808281526020013481526020018481526020013373ffffffffffffffffffffffffffffffffffffffff16815260200160006002811115610d4057610d3f6112c5565b5b8152506001600084815260200190815260200160002060008201518160000155602082015181600101556040820151816002015560608201518160030160006101000a81548173ffffffffffffffffffffffffffffffffffffffff021916908373ffffffffffffffffffffffffffffffffffffffff16021790555060808201518160030160146101000a81548160ff02191690836002811115610de657610de56112c5565b5b021790555090505050505050565b60008054906101000a900460ff16610e0b57600080fd5b610e13610618565b73ffffffffffffffffffffffffffffffffffffffff163373ffffffffffffffffffffffffffffffffffffffff1614610e77576040517f5fc483c500000000000000000000000000000000000000000000000000000000815260040160405180910390fd5b6000600460009054906101000a900473ffffffffffffffffffffffffffffffffffffffff1673ffffffffffffffffffffffffffffffffffffffff1647604051610ebf90611535565b60006040518083038185875af1925050503d8060008114610efc576040519150601f19603f3d011682016040523d82523d6000602084013e610f01565b606091505b5050905080610f45576040517f08c379a0000000000000000000000000000000000000000000000000000000008152600401610f3c9061178b565b60405180910390fd5b50565b610f50610618565b73ffffffffffffffffffffffffffffffffffffffff163373ffffffffffffffffffffffffffffffffffffffff1614610fb4576040517f5fc483c500000000000000000000000000000000000000000000000000000000815260040160405180910390fd5b610fbd8161109d565b50565b60008073ffffffffffffffffffffffffffffffffffffffff166001600084815260200190815260200160002060030160009054906101000a900473ffffffffffffffffffffffffffffffffffffffff1673ffffffffffffffffffffffffffffffffffffffff1614159050919050565b60003373ffffffffffffffffffffffffffffffffffffffff166001600084815260200190815260200160002060030160009054906101000a900473ffffffffffffffffffffffffffffffffffffffff1673ffffffffffffffffffffffffffffffffffffffff16149050919050565b80600460006101000a81548173ffffffffffffffffffffffffffffffffffffffff021916908373ffffffffffffffffffffffffffffffffffffffff16021790555050565b6040518060a00160405280600081526020016000815260200160008019168152602001600073ffffffffffffffffffffffffffffffffffffffff16815260200160006002811115611135576111346112c5565b5b81525090565b600080fd5b6000819050919050565b61115381611140565b811461115e57600080fd5b50565b6000813590506111708161114a565b92915050565b60006020828403121561118c5761118b61113b565b5b600061119a84828501611161565b91505092915050565b6000819050919050565b6111b6816111a3565b81146111c157600080fd5b50565b6000813590506111d3816111ad565b92915050565b6000602082840312156111ef576111ee61113b565b5b60006111fd848285016111c4565b91505092915050565b60008115159050919050565b61121b81611206565b82525050565b60006020820190506112366000830184611212565b92915050565b600073ffffffffffffffffffffffffffffffffffffffff82169050919050565b60006112678261123c565b9050919050565b6112778161125c565b82525050565b6000602082019050611292600083018461126e565b92915050565b6112a181611140565b82525050565b6112b0816111a3565b82525050565b6112bf8161125c565b82525050565b7f4e487b7100000000000000000000000000000000000000000000000000000000600052602160045260246000fd5b60038110611305576113046112c5565b5b50565b6000819050611316826112f4565b919050565b600061132682611308565b9050919050565b6113368161131b565b82525050565b60a0820160008201516113526000850182611298565b5060208201516113656020850182611298565b50604082015161137860408501826112a7565b50606082015161138b60608501826112b6565b50608082015161139e608085018261132d565b50505050565b600060a0820190506113b9600083018461133c565b92915050565b6113c8816111a3565b82525050565b60006020820190506113e360008301846113bf565b92915050565b6113f281611140565b82525050565b600060208201905061140d60008301846113e9565b92915050565b60007fffffffffffffffffffffffffffffffff0000000000000000000000000000000082169050919050565b61144881611413565b811461145357600080fd5b50565b6000813590506114658161143f565b92915050565b600080604083850312156114825761148161113b565b5b600061149085828601611456565b92505060206114a1858286016111c4565b9150509250929050565b6114b48161125c565b81146114bf57600080fd5b50565b6000813590506114d1816114ab565b92915050565b6000602082840312156114ed576114ec61113b565b5b60006114fb848285016114c2565b91505092915050565b600081905092915050565b50565b600061151f600083611504565b915061152a8261150f565b600082019050919050565b600061154082611512565b9150819050919050565b600082825260208201905092915050565b7f46616c6861206e61207472616e73666572656e63696100000000000000000000600082015250565b600061159160168361154a565b915061159c8261155b565b602082019050919050565b600060208201905081810360008301526115c081611584565b9050919050565b7f41207472616e73666572656e6369612066616c686f7521000000000000000000600082015250565b60006115fd60178361154a565b9150611608826115c7565b602082019050919050565b6000602082019050818103600083015261162c816115f0565b9050919050565b6000819050919050565b61164e61164982611413565b611633565b82525050565b60008160601b9050919050565b600061166c82611654565b9050919050565b600061167e82611661565b9050919050565b6116966116918261125c565b611673565b82525050565b60006116a8828561163d565b6010820191506116b88284611685565b6014820191508190509392505050565b7f4e487b7100000000000000000000000000000000000000000000000000000000600052601160045260246000fd5b600061170282611140565b91507fffffffffffffffffffffffffffffffffffffffffffffffffffffffffffffffff8203611734576117336116c8565b5b600182019050919050565b7f5472616e73666572656e6369612066616c686f752e0000000000000000000000600082015250565b600061177560158361154a565b91506117808261173f565b602082019050919050565b600060208201905081810360008301526117a481611768565b905091905056fea26469706673582212204334543c84bc1543f6a47b536459164a8b96fdc0d3c10a3ac71fa4047506718164736f6c634300080f0033",
  "immutableReferences": {},
  "source": "// SPDX-License-Identifier: MIT\r\npragma solidity >=0.4.22 <0.9.0;\r\n\r\n\r\n//trs estados dos cursos/aulas/matrias\r\n//so representados por nmeros a partir do 0\r\ncontract CourseMarketplace {\r\n    enum State {Purchased, Activated, Deactivated}\r\n\r\n    struct Course{\r\n        uint id; //32\r\n        uint price; //32\r\n        bytes32 proof; //32\r\n        address owner; //20\r\n        State state; //1\r\n    }\r\n\r\n    bool public isStopped = false;\r\n     \r\n    //mapping do courseHash para os dados do Course\r\n    mapping(bytes32 => Course) private ownedCourses;\r\n\r\n    //mapping do courseId para o courseHash\r\n    mapping(uint => bytes32) private ownedCourseHash;\r\n\r\n    //nmero de todos os cursos + id dos cursos\r\n    uint private totalOwnedCourses;\r\n\r\n    //professores - instrutores\r\n    address payable private owner; \r\n\r\n    constructor(){\r\n        setContractOwner(msg.sender);\r\n    }\r\n\r\n    ///No h um estado vlido para o curso!\r\n    error InvalidState();\r\n\r\n    ///O curso no foi criado!\r\n    error CourseIsNotCreated();\r\n\r\n    /// O remetente no  o dono do curso!\r\n    error SenderIsNotCourseOwner();\r\n\r\n    ///O curso j possui um dono!\r\n    error CourseHasOwner();\r\n\r\n    ///Apenas o dono poder fazer essa operao!\r\n    error OnlyOwner();\r\n\r\n\r\n    //apenas o dono do contrato pode alterar o acesso de outro dono do curso\r\n    modifier onlyOwner() {\r\n        if (msg.sender != getContractOwner()) {\r\n        revert OnlyOwner();\r\n        }\r\n        _;\r\n    }\r\n\r\n    modifier onlyWhenNotStopped {\r\n        require(!isStopped);\r\n        _;\r\n    }\r\n\r\n    modifier onlyWhenStopped {\r\n        require(isStopped);\r\n        _;\r\n    }\r\n\r\n    receive() external payable {}\r\n\r\n    function repurchaseCourse(bytes32 courseHash) external payable onlyWhenNotStopped{\r\n        if (!isCourseCreated(courseHash)) {\r\n            revert CourseIsNotCreated();\r\n        }\r\n\r\n        if(!hasCourseOwnership(courseHash)) {\r\n            revert SenderIsNotCourseOwner();\r\n        }\r\n\r\n    Course storage course = ownedCourses[courseHash];\r\n\r\n        if (course.state != State.Deactivated) {\r\n        revert InvalidState();\r\n        }\r\n\r\n        course.state = State.Purchased;\r\n        course.price = msg.value;\r\n    }\r\n\r\n\r\n\r\n    function activateCourse(bytes32 courseHash) external onlyOwner onlyWhenNotStopped{\r\n        //recebe o hash do curso do front\r\n        //tal request foi enviado pelo dono da transao\r\n        //se o curso no for criado, ir reverter o contrato\r\n        if(!isCourseCreated(courseHash)){\r\n            revert CourseIsNotCreated();\r\n        }\r\n\r\n        Course storage course = ownedCourses[courseHash];\r\n\r\n        if(course.state != State.Purchased){\r\n            revert InvalidState();\r\n        }\r\n        course.state = State.Activated;\r\n    }\r\n\r\n\r\n    function deactivateCourse(bytes32 courseHash) external onlyWhenNotStopped onlyOwner{\r\n        if (!isCourseCreated(courseHash)) {\r\n            revert CourseIsNotCreated();\r\n        }\r\n\r\n        Course storage course = ownedCourses[courseHash];\r\n\r\n        if (course.state != State.Purchased) {\r\n            revert InvalidState();\r\n        }\r\n\r\n        (bool success, ) = course.owner.call{value: course.price}(\"\");\r\n            require(success, \"A transferencia falhou!\");\r\n\r\n        course.state = State.Deactivated;\r\n        course.price = 0;\r\n    }\r\n\r\n    function addFunds() external payable {\r\n    }\r\n\r\n    function withdraw(uint amount) external payable{\r\n        \r\n        (bool success, ) = owner.call{value: amount}(\"\");\r\n        require(success, \"Falha na transferencia\");\r\n    }\r\n\r\n\r\n    //saca o valor total do contrato para o dono do contrato em caso de falhas ou erros\r\n    function emergencyWithdraw() external onlyWhenStopped onlyOwner{\r\n        (bool success, ) = owner.call{value: address(this).balance}(\"\");\r\n        require(success, \"Transferencia falhou.\");\r\n    }\r\n\r\n    //transfere o valor total do contrato para o dono do contrato quando o contrato for destruido\r\n    function selfDestruct() external onlyWhenStopped onlyOwner {\r\n        selfdestruct(owner);\r\n    }\r\n\r\n    function stopContract() external onlyOwner {\r\n        isStopped = true;\r\n    }\r\n\r\n  function resumeContract() external onlyOwner {\r\n        isStopped = false;\r\n  }\r\n\r\n//[ID do curso] ASCII -> DEC | transforma em 16 bytes\r\n//[id do curso + msg sender] -> KECCAK -> HEX -> hash do curso\r\n\r\n    function purchaseCourse(bytes16 courseId, bytes32 proof) external payable onlyWhenNotStopped{\r\n        bytes32 courseHash = keccak256(abi.encodePacked(courseId, msg.sender));\r\n\r\n        if(hasCourseOwnership(courseHash)){\r\n            revert CourseHasOwner();\r\n        }\r\n\r\n        uint id = totalOwnedCourses++;\r\n        ownedCourseHash[id] = courseHash;\r\n        ownedCourses[courseHash] = Course({\r\n            id: id, price: msg.value, proof: proof, owner: msg.sender, state: State.Purchased\r\n        });\r\n    }\r\n\r\n\r\n    function transferOwnership(address newOwner) external onlyOwner {\r\n        setContractOwner(newOwner);\r\n    }\r\n\r\n    function getCourseCount() external view returns (uint) {\r\n        return totalOwnedCourses;\r\n    }\r\n\r\n    function getCourseHashAtIndex(uint index) external view returns (bytes32) {\r\n        return ownedCourseHash[index];\r\n    }\r\n\r\n    function getCourseByHash(bytes32 courseHash) external view returns (Course memory) {\r\n        return ownedCourses[courseHash];\r\n    }\r\n\r\n    function getContractOwner() public view returns (address) {\r\n        return owner;\r\n    }\r\n\r\n    function setContractOwner(address newOwner) private {\r\n        owner = payable(newOwner);\r\n    }\r\n\r\n    function isCourseCreated(bytes32 courseHash) private view returns (bool) {\r\n        return ownedCourses[courseHash].owner != 0x0000000000000000000000000000000000000000;\r\n    }\r\n\r\n    function hasCourseOwnership(bytes32 courseHash) private view returns (bool) {\r\n        return ownedCourses[courseHash].owner == msg.sender;\r\n    }\r\n}",
  "sourcePath": "C:\\Users\\samue\\Videos\\gnosePlace\\contracts\\CourseMarketplace.sol",
  "compiler": {
    "name": "solc",
    "version": "0.8.15+commit.e14f2714.Emscripten.clang"
  },
  "schemaVersion": "3.4.8",
  "updatedAt": "2023-01-18T00:31:00.686Z",
  "networkType": "ethereum",
  "devdoc": {
    "kind": "dev",
    "methods": {},
    "version": 1
  },
  "userdoc": {
    "errors": {
      "CourseHasOwner()": [
        {
          "notice": "O curso j possui um dono!"
        }
      ],
      "CourseIsNotCreated()": [
        {
          "notice": "O curso no foi criado!"
        }
      ],
      "InvalidState()": [
        {
          "notice": "No h um estado vlido para o curso!"
        }
      ],
      "OnlyOwner()": [
        {
          "notice": "Apenas o dono poder fazer essa operao!"
        }
      ],
      "SenderIsNotCourseOwner()": [
        {
          "notice": "O remetente no  o dono do curso!"
        }
      ]
    },
    "kind": "user",
    "methods": {},
    "version": 1
  }
}