{
  "contractName": "CourseMarketplace",
  "abi": [
    {
      "inputs": [],
      "stateMutability": "nonpayable",
      "type": "constructor"
    },
    {
      "inputs": [],
      "name": "CourseHasOwner",
      "type": "error"
    },
    {
      "inputs": [],
      "name": "CourseIsNotCreated",
      "type": "error"
    },
    {
      "inputs": [],
      "name": "InvalidState",
      "type": "error"
    },
    {
      "inputs": [],
      "name": "OnlyOwner",
      "type": "error"
    },
    {
      "inputs": [],
      "name": "SenderIsNotCourseOwner",
      "type": "error"
    },
    {
      "inputs": [],
      "name": "isStopped",
      "outputs": [
        {
          "internalType": "bool",
          "name": "",
          "type": "bool"
        }
      ],
      "stateMutability": "view",
      "type": "function",
      "constant": true
    },
    {
      "stateMutability": "payable",
      "type": "receive",
      "payable": true
    },
    {
      "inputs": [
        {
          "internalType": "bytes32",
          "name": "courseHash",
          "type": "bytes32"
        }
      ],
      "name": "repurchaseCourse",
      "outputs": [],
      "stateMutability": "payable",
      "type": "function",
      "payable": true
    },
    {
      "inputs": [
        {
          "internalType": "bytes32",
          "name": "courseHash",
          "type": "bytes32"
        }
      ],
      "name": "activateCourse",
      "outputs": [],
      "stateMutability": "nonpayable",
      "type": "function"
    },
    {
      "inputs": [
        {
          "internalType": "bytes32",
          "name": "courseHash",
          "type": "bytes32"
        }
      ],
      "name": "deactivateCourse",
      "outputs": [],
      "stateMutability": "nonpayable",
      "type": "function"
    },
    {
      "inputs": [
        {
          "internalType": "uint256",
          "name": "amount",
          "type": "uint256"
        }
      ],
      "name": "addFunds",
      "outputs": [],
      "stateMutability": "payable",
      "type": "function",
      "payable": true
    },
    {
      "inputs": [
        {
          "internalType": "uint256",
          "name": "amount",
          "type": "uint256"
        }
      ],
      "name": "withdraw",
      "outputs": [],
      "stateMutability": "payable",
      "type": "function",
      "payable": true
    },
    {
      "inputs": [],
      "name": "emergencyWithdraw",
      "outputs": [],
      "stateMutability": "nonpayable",
      "type": "function"
    },
    {
      "inputs": [],
      "name": "selfDestruct",
      "outputs": [],
      "stateMutability": "nonpayable",
      "type": "function"
    },
    {
      "inputs": [],
      "name": "stopContract",
      "outputs": [],
      "stateMutability": "nonpayable",
      "type": "function"
    },
    {
      "inputs": [],
      "name": "resumeContract",
      "outputs": [],
      "stateMutability": "nonpayable",
      "type": "function"
    },
    {
      "inputs": [
        {
          "internalType": "bytes16",
          "name": "courseId",
          "type": "bytes16"
        },
        {
          "internalType": "bytes32",
          "name": "proof",
          "type": "bytes32"
        }
      ],
      "name": "purchaseCourse",
      "outputs": [],
      "stateMutability": "payable",
      "type": "function",
      "payable": true
    },
    {
      "inputs": [
        {
          "internalType": "address",
          "name": "newOwner",
          "type": "address"
        }
      ],
      "name": "transferOwnership",
      "outputs": [],
      "stateMutability": "nonpayable",
      "type": "function"
    },
    {
      "inputs": [],
      "name": "getCourseCount",
      "outputs": [
        {
          "internalType": "uint256",
          "name": "",
          "type": "uint256"
        }
      ],
      "stateMutability": "view",
      "type": "function",
      "constant": true
    },
    {
      "inputs": [
        {
          "internalType": "uint256",
          "name": "index",
          "type": "uint256"
        }
      ],
      "name": "getCourseHashAtIndex",
      "outputs": [
        {
          "internalType": "bytes32",
          "name": "",
          "type": "bytes32"
        }
      ],
      "stateMutability": "view",
      "type": "function",
      "constant": true
    },
    {
      "inputs": [
        {
          "internalType": "bytes32",
          "name": "courseHash",
          "type": "bytes32"
        }
      ],
      "name": "getCourseByHash",
      "outputs": [
        {
          "components": [
            {
              "internalType": "uint256",
              "name": "id",
              "type": "uint256"
            },
            {
              "internalType": "uint256",
              "name": "price",
              "type": "uint256"
            },
            {
              "internalType": "bytes32",
              "name": "proof",
              "type": "bytes32"
            },
            {
              "internalType": "address",
              "name": "owner",
              "type": "address"
            },
            {
              "internalType": "enum CourseMarketplace.State",
              "name": "state",
              "type": "uint8"
            }
          ],
          "internalType": "struct CourseMarketplace.Course",
          "name": "",
          "type": "tuple"
        }
      ],
      "stateMutability": "view",
      "type": "function",
      "constant": true
    },
    {
      "inputs": [],
      "name": "getContractOwner",
      "outputs": [
        {
          "internalType": "address",
          "name": "",
          "type": "address"
        }
      ],
      "stateMutability": "view",
      "type": "function",
      "constant": true
    }
  ],
  "bytecode": "0x608060405260008060006101000a81548160ff02191690831515021790555034801561002a57600080fd5b5061003a3361003f60201b60201c565b610083565b80600460006101000a81548173ffffffffffffffffffffffffffffffffffffffff021916908373ffffffffffffffffffffffffffffffffffffffff16021790555050565b6117f4806100926000396000f3fe6080604052600436106100f75760003560e01c8063935d7e6d1161008a578063c4bc5da511610059578063c4bc5da5146102d2578063d76821cb146102e9578063db2e21bc14610305578063f2fde38b1461031c576100fe565b8063935d7e6d1461024b57806396cfda06146102745780639cb8a26a1461029f578063be999705146102b6576100fe565b8063442890d5116100c6578063442890d51461018a5780636136e1eb146101b557806362e4e6ac146101d15780636d11290b1461020e576100fe565b806312253a6c146101035780632e1a7d4d1461011a57806339262572146101365780633f683b6a1461015f576100fe565b366100fe57005b600080fd5b34801561010f57600080fd5b50610118610345565b005b610134600480360381019061012f91906111f5565b6103cd565b005b34801561014257600080fd5b5061015d60048036038101906101589190611258565b61050b565b005b34801561016b57600080fd5b50610174610685565b60405161018191906112a0565b60405180910390f35b34801561019657600080fd5b5061019f610696565b6040516101ac91906112fc565b60405180910390f35b6101cf60048036038101906101ca9190611258565b6106c0565b005b3480156101dd57600080fd5b506101f860048036038101906101f39190611258565b610815565b6040516102059190611423565b60405180910390f35b34801561021a57600080fd5b50610235600480360381019061023091906111f5565b6108f1565b604051610242919061144d565b60405180910390f35b34801561025757600080fd5b50610272600480360381019061026d9190611258565b61090e565b005b34801561028057600080fd5b50610289610b67565b6040516102969190611477565b60405180910390f35b3480156102ab57600080fd5b506102b4610b71565b005b6102d060048036038101906102cb91906111f5565b610c2f565b005b3480156102de57600080fd5b506102e7610c32565b005b61030360048036038101906102fe91906114ea565b610cba565b005b34801561031157600080fd5b5061031a610e73565b005b34801561032857600080fd5b50610343600480360381019061033e9190611556565b610fc7565b005b61034d610696565b73ffffffffffffffffffffffffffffffffffffffff163373ffffffffffffffffffffffffffffffffffffffff16146103b1576040517f5fc483c500000000000000000000000000000000000000000000000000000000815260040160405180910390fd5b60016000806101000a81548160ff021916908315150217905550565b6103d5610696565b73ffffffffffffffffffffffffffffffffffffffff163373ffffffffffffffffffffffffffffffffffffffff1614610439576040517f5fc483c500000000000000000000000000000000000000000000000000000000815260040160405180910390fd5b6000600460009054906101000a900473ffffffffffffffffffffffffffffffffffffffff1673ffffffffffffffffffffffffffffffffffffffff1682604051610481906115b4565b60006040518083038185875af1925050503d80600081146104be576040519150601f19603f3d011682016040523d82523d6000602084013e6104c3565b606091505b5050905080610507576040517f08c379a00000000000000000000000000000000000000000000000000000000081526004016104fe90611626565b60405180910390fd5b5050565b610513610696565b73ffffffffffffffffffffffffffffffffffffffff163373ffffffffffffffffffffffffffffffffffffffff1614610577576040517f5fc483c500000000000000000000000000000000000000000000000000000000815260040160405180910390fd5b60008054906101000a900460ff161561058f57600080fd5b6105988161103f565b6105ce576040517f4db0c48300000000000000000000000000000000000000000000000000000000815260040160405180910390fd5b6000600160008381526020019081526020016000209050600060028111156105f9576105f8611344565b5b8160030160149054906101000a900460ff16600281111561061d5761061c611344565b5b14610654576040517fbaf3f0f700000000000000000000000000000000000000000000000000000000815260040160405180910390fd5b60018160030160146101000a81548160ff0219169083600281111561067c5761067b611344565b5b02179055505050565b60008054906101000a900460ff1681565b6000600460009054906101000a900473ffffffffffffffffffffffffffffffffffffffff16905090565b60008054906101000a900460ff16156106d857600080fd5b6106e18161103f565b610717576040517f4db0c48300000000000000000000000000000000000000000000000000000000815260040160405180910390fd5b610720816110ae565b610756576040517fcce31cc400000000000000000000000000000000000000000000000000000000815260040160405180910390fd5b60006001600083815260200190815260200160002090506002808111156107805761077f611344565b5b8160030160149054906101000a900460ff1660028111156107a4576107a3611344565b5b146107db576040517fbaf3f0f700000000000000000000000000000000000000000000000000000000815260040160405180910390fd5b60008160030160146101000a81548160ff0219169083600281111561080357610802611344565b5b02179055503481600101819055505050565b61081d611160565b600160008381526020019081526020016000206040518060a00160405290816000820154815260200160018201548152602001600282015481526020016003820160009054906101000a900473ffffffffffffffffffffffffffffffffffffffff1673ffffffffffffffffffffffffffffffffffffffff1673ffffffffffffffffffffffffffffffffffffffff1681526020016003820160149054906101000a900460ff1660028111156108d4576108d3611344565b5b60028111156108e6576108e5611344565b5b815250509050919050565b600060026000838152602001908152602001600020549050919050565b60008054906101000a900460ff161561092657600080fd5b61092e610696565b73ffffffffffffffffffffffffffffffffffffffff163373ffffffffffffffffffffffffffffffffffffffff1614610992576040517f5fc483c500000000000000000000000000000000000000000000000000000000815260040160405180910390fd5b61099b8161103f565b6109d1576040517f4db0c48300000000000000000000000000000000000000000000000000000000815260040160405180910390fd5b6000600160008381526020019081526020016000209050600060028111156109fc576109fb611344565b5b8160030160149054906101000a900460ff166002811115610a2057610a1f611344565b5b14610a57576040517fbaf3f0f700000000000000000000000000000000000000000000000000000000815260040160405180910390fd5b60008160030160009054906101000a900473ffffffffffffffffffffffffffffffffffffffff1673ffffffffffffffffffffffffffffffffffffffff168260010154604051610aa5906115b4565b60006040518083038185875af1925050503d8060008114610ae2576040519150601f19603f3d011682016040523d82523d6000602084013e610ae7565b606091505b5050905080610b2b576040517f08c379a0000000000000000000000000000000000000000000000000000000008152600401610b2290611692565b60405180910390fd5b60028260030160146101000a81548160ff02191690836002811115610b5357610b52611344565b5b021790555060008260010181905550505050565b6000600354905090565b60008054906101000a900460ff16610b8857600080fd5b610b90610696565b73ffffffffffffffffffffffffffffffffffffffff163373ffffffffffffffffffffffffffffffffffffffff1614610bf4576040517f5fc483c500000000000000000000000000000000000000000000000000000000815260040160405180910390fd5b600460009054906101000a900473ffffffffffffffffffffffffffffffffffffffff1673ffffffffffffffffffffffffffffffffffffffff16ff5b50565b610c3a610696565b73ffffffffffffffffffffffffffffffffffffffff163373ffffffffffffffffffffffffffffffffffffffff1614610c9e576040517f5fc483c500000000000000000000000000000000000000000000000000000000815260040160405180910390fd5b60008060006101000a81548160ff021916908315150217905550565b60008054906101000a900460ff1615610cd257600080fd5b60008233604051602001610ce792919061171b565b604051602081830303815290604052805190602001209050610d08816110ae565b15610d3f576040517fb0fc2d9700000000000000000000000000000000000000000000000000000000815260040160405180910390fd5b600060036000815480929190610d5490611776565b9190505590508160026000838152602001908152602001600020819055506040518060a001604052808281526020013481526020018481526020013373ffffffffffffffffffffffffffffffffffffffff16815260200160006002811115610dbf57610dbe611344565b5b8152506001600084815260200190815260200160002060008201518160000155602082015181600101556040820151816002015560608201518160030160006101000a81548173ffffffffffffffffffffffffffffffffffffffff021916908373ffffffffffffffffffffffffffffffffffffffff16021790555060808201518160030160146101000a81548160ff02191690836002811115610e6557610e64611344565b5b021790555090505050505050565b60008054906101000a900460ff16610e8a57600080fd5b610e92610696565b73ffffffffffffffffffffffffffffffffffffffff163373ffffffffffffffffffffffffffffffffffffffff1614610ef6576040517f5fc483c500000000000000000000000000000000000000000000000000000000815260040160405180910390fd5b6000600460009054906101000a900473ffffffffffffffffffffffffffffffffffffffff1673ffffffffffffffffffffffffffffffffffffffff1647604051610f3e906115b4565b60006040518083038185875af1925050503d8060008114610f7b576040519150601f19603f3d011682016040523d82523d6000602084013e610f80565b606091505b5050905080610fc4576040517f08c379a0000000000000000000000000000000000000000000000000000000008152600401610fbb90611626565b60405180910390fd5b50565b610fcf610696565b73ffffffffffffffffffffffffffffffffffffffff163373ffffffffffffffffffffffffffffffffffffffff1614611033576040517f5fc483c500000000000000000000000000000000000000000000000000000000815260040160405180910390fd5b61103c8161111c565b50565b60008073ffffffffffffffffffffffffffffffffffffffff166001600084815260200190815260200160002060030160009054906101000a900473ffffffffffffffffffffffffffffffffffffffff1673ffffffffffffffffffffffffffffffffffffffff1614159050919050565b60003373ffffffffffffffffffffffffffffffffffffffff166001600084815260200190815260200160002060030160009054906101000a900473ffffffffffffffffffffffffffffffffffffffff1673ffffffffffffffffffffffffffffffffffffffff16149050919050565b80600460006101000a81548173ffffffffffffffffffffffffffffffffffffffff021916908373ffffffffffffffffffffffffffffffffffffffff16021790555050565b6040518060a00160405280600081526020016000815260200160008019168152602001600073ffffffffffffffffffffffffffffffffffffffff168152602001600060028111156111b4576111b3611344565b5b81525090565b600080fd5b6000819050919050565b6111d2816111bf565b81146111dd57600080fd5b50565b6000813590506111ef816111c9565b92915050565b60006020828403121561120b5761120a6111ba565b5b6000611219848285016111e0565b91505092915050565b6000819050919050565b61123581611222565b811461124057600080fd5b50565b6000813590506112528161122c565b92915050565b60006020828403121561126e5761126d6111ba565b5b600061127c84828501611243565b91505092915050565b60008115159050919050565b61129a81611285565b82525050565b60006020820190506112b56000830184611291565b92915050565b600073ffffffffffffffffffffffffffffffffffffffff82169050919050565b60006112e6826112bb565b9050919050565b6112f6816112db565b82525050565b600060208201905061131160008301846112ed565b92915050565b611320816111bf565b82525050565b61132f81611222565b82525050565b61133e816112db565b82525050565b7f4e487b7100000000000000000000000000000000000000000000000000000000600052602160045260246000fd5b6003811061138457611383611344565b5b50565b600081905061139582611373565b919050565b60006113a582611387565b9050919050565b6113b58161139a565b82525050565b60a0820160008201516113d16000850182611317565b5060208201516113e46020850182611317565b5060408201516113f76040850182611326565b50606082015161140a6060850182611335565b50608082015161141d60808501826113ac565b50505050565b600060a08201905061143860008301846113bb565b92915050565b61144781611222565b82525050565b6000602082019050611462600083018461143e565b92915050565b611471816111bf565b82525050565b600060208201905061148c6000830184611468565b92915050565b60007fffffffffffffffffffffffffffffffff0000000000000000000000000000000082169050919050565b6114c781611492565b81146114d257600080fd5b50565b6000813590506114e4816114be565b92915050565b60008060408385031215611501576115006111ba565b5b600061150f858286016114d5565b925050602061152085828601611243565b9150509250929050565b611533816112db565b811461153e57600080fd5b50565b6000813590506115508161152a565b92915050565b60006020828403121561156c5761156b6111ba565b5b600061157a84828501611541565b91505092915050565b600081905092915050565b50565b600061159e600083611583565b91506115a98261158e565b600082019050919050565b60006115bf82611591565b9150819050919050565b600082825260208201905092915050565b7f5472616e73666572656e6369612066616c686f752e0000000000000000000000600082015250565b60006116106015836115c9565b915061161b826115da565b602082019050919050565b6000602082019050818103600083015261163f81611603565b9050919050565b7f41207472616e73666572656e6369612066616c686f7521000000000000000000600082015250565b600061167c6017836115c9565b915061168782611646565b602082019050919050565b600060208201905081810360008301526116ab8161166f565b9050919050565b6000819050919050565b6116cd6116c882611492565b6116b2565b82525050565b60008160601b9050919050565b60006116eb826116d3565b9050919050565b60006116fd826116e0565b9050919050565b611715611710826112db565b6116f2565b82525050565b600061172782856116bc565b6010820191506117378284611704565b6014820191508190509392505050565b7f4e487b7100000000000000000000000000000000000000000000000000000000600052601160045260246000fd5b6000611781826111bf565b91507fffffffffffffffffffffffffffffffffffffffffffffffffffffffffffffffff82036117b3576117b2611747565b5b60018201905091905056fea2646970667358221220103a8b2bd0a0cd2bfa3e315fb82d2986192e19c96676cd5866e838cde28425a464736f6c634300080f0033",
  "immutableReferences": {},
  "source": "// SPDX-License-Identifier: MIT\r\npragma solidity >=0.4.22 <0.9.0;\r\n\r\n\r\n//trs estados dos cursos/aulas/matrias\r\n//so representados por nmeros a partir do 0\r\ncontract CourseMarketplace {\r\n    enum State {Purchased, Activated, Deactivated}\r\n\r\n    struct Course{\r\n        uint id; //32\r\n        uint price; //32\r\n        bytes32 proof; //32\r\n        address owner; //20\r\n        State state; //1\r\n    }\r\n\r\n    bool public isStopped = false;\r\n     \r\n    //mapping do courseHash para os dados do Course\r\n    mapping(bytes32 => Course) private ownedCourses;\r\n\r\n    //mapping do courseId para o courseHash\r\n    mapping(uint => bytes32) private ownedCourseHash;\r\n\r\n    //nmero de todos os cursos + id dos cursos\r\n    uint private totalOwnedCourses;\r\n\r\n    //professores - instrutores\r\n    address payable private owner; \r\n\r\n    constructor(){\r\n        setContractOwner(msg.sender);\r\n    }\r\n\r\n    ///No h um estado vlido para o curso!\r\n    error InvalidState();\r\n\r\n    ///O curso no foi criado!\r\n    error CourseIsNotCreated();\r\n\r\n    /// O remetente no  o dono do curso!\r\n    error SenderIsNotCourseOwner();\r\n\r\n    ///O curso j possui um dono!\r\n    error CourseHasOwner();\r\n\r\n    ///Apenas o dono poder fazer essa operao!\r\n    error OnlyOwner();\r\n\r\n\r\n    //apenas o dono do contrato pode alterar o acesso de outro dono do curso\r\n    modifier onlyOwner() {\r\n        if (msg.sender != getContractOwner()) {\r\n        revert OnlyOwner();\r\n        }\r\n        _;\r\n    }\r\n\r\n    modifier onlyWhenNotStopped {\r\n        require(!isStopped);\r\n        _;\r\n    }\r\n\r\n    modifier onlyWhenStopped {\r\n        require(isStopped);\r\n        _;\r\n    }\r\n\r\n    receive() external payable {}\r\n\r\n    function repurchaseCourse(bytes32 courseHash) external payable onlyWhenNotStopped{\r\n        if (!isCourseCreated(courseHash)) {\r\n            revert CourseIsNotCreated();\r\n        }\r\n\r\n        if(!hasCourseOwnership(courseHash)) {\r\n            revert SenderIsNotCourseOwner();\r\n        }\r\n\r\n    Course storage course = ownedCourses[courseHash];\r\n\r\n        if (course.state != State.Deactivated) {\r\n        revert InvalidState();\r\n        }\r\n\r\n        course.state = State.Purchased;\r\n        course.price = msg.value;\r\n    }\r\n\r\n\r\n\r\n    function activateCourse(bytes32 courseHash) external onlyOwner onlyWhenNotStopped{\r\n        //recebe o hash do curso do front\r\n        //tal request foi enviado pelo dono da transao\r\n        //se o curso no for criado, ir reverter o contrato\r\n        if(!isCourseCreated(courseHash)){\r\n            revert CourseIsNotCreated();\r\n        }\r\n\r\n        Course storage course = ownedCourses[courseHash];\r\n\r\n        if(course.state != State.Purchased){\r\n            revert InvalidState();\r\n        }\r\n        course.state = State.Activated;\r\n    }\r\n\r\n\r\n    function deactivateCourse(bytes32 courseHash) external onlyWhenNotStopped onlyOwner{\r\n        if (!isCourseCreated(courseHash)) {\r\n            revert CourseIsNotCreated();\r\n        }\r\n\r\n        Course storage course = ownedCourses[courseHash];\r\n\r\n        if (course.state != State.Purchased) {\r\n            revert InvalidState();\r\n        }\r\n\r\n        (bool success, ) = course.owner.call{value: course.price}(\"\");\r\n            require(success, \"A transferencia falhou!\");\r\n\r\n        course.state = State.Deactivated;\r\n        course.price = 0;\r\n    }\r\n\r\n    function addFunds(uint amount) external payable {\r\n    }\r\n\r\n    function withdraw(uint amount) external payable onlyOwner \r\n    {\r\n        (bool success, ) = owner.call{value: amount}(\"\");\r\n        require(success, \"Transferencia falhou.\");\r\n    }\r\n\r\n\r\n    //saca o valor total do contrato para o dono do contrato em caso de falhas ou erros\r\n    function emergencyWithdraw() external onlyWhenStopped onlyOwner{\r\n        (bool success, ) = owner.call{value: address(this).balance}(\"\");\r\n        require(success, \"Transferencia falhou.\");\r\n    }\r\n\r\n    //transfere o valor total do contrato para o dono do contrato quando o contrato for destruido\r\n    function selfDestruct() external onlyWhenStopped onlyOwner {\r\n        selfdestruct(owner);\r\n    }\r\n\r\n    function stopContract() external onlyOwner {\r\n        isStopped = true;\r\n    }\r\n\r\n  function resumeContract() external onlyOwner {\r\n        isStopped = false;\r\n  }\r\n\r\n//[ID do curso] ASCII -> DEC | transforma em 16 bytes\r\n//[id do curso + msg sender] -> KECCAK -> HEX -> hash do curso\r\n\r\n    function purchaseCourse(bytes16 courseId, bytes32 proof) external payable onlyWhenNotStopped{\r\n        bytes32 courseHash = keccak256(abi.encodePacked(courseId, msg.sender));\r\n\r\n        if(hasCourseOwnership(courseHash)){\r\n            revert CourseHasOwner();\r\n        }\r\n\r\n        uint id = totalOwnedCourses++;\r\n        ownedCourseHash[id] = courseHash;\r\n        ownedCourses[courseHash] = Course({\r\n            id: id, price: msg.value, proof: proof, owner: msg.sender, state: State.Purchased\r\n        });\r\n    }\r\n\r\n\r\n    function transferOwnership(address newOwner) external onlyOwner {\r\n        setContractOwner(newOwner);\r\n    }\r\n\r\n    function getCourseCount() external view returns (uint) {\r\n        return totalOwnedCourses;\r\n    }\r\n\r\n    function getCourseHashAtIndex(uint index) external view returns (bytes32) {\r\n        return ownedCourseHash[index];\r\n    }\r\n\r\n    function getCourseByHash(bytes32 courseHash) external view returns (Course memory) {\r\n        return ownedCourses[courseHash];\r\n    }\r\n\r\n    function getContractOwner() public view returns (address) {\r\n        return owner;\r\n    }\r\n\r\n    function setContractOwner(address newOwner) private {\r\n        owner = payable(newOwner);\r\n    }\r\n\r\n    function isCourseCreated(bytes32 courseHash) private view returns (bool) {\r\n        return ownedCourses[courseHash].owner != 0x0000000000000000000000000000000000000000;\r\n    }\r\n\r\n    function hasCourseOwnership(bytes32 courseHash) private view returns (bool) {\r\n        return ownedCourses[courseHash].owner == msg.sender;\r\n    }\r\n}",
  "sourcePath": "C:\\Users\\samue\\Videos\\gnosePlace\\contracts\\CourseMarketplace.sol",
  "compiler": {
    "name": "solc",
    "version": "0.8.15+commit.e14f2714.Emscripten.clang"
  },
  "schemaVersion": "3.4.8",
  "updatedAt": "2023-01-17T19:10:21.165Z",
  "networkType": "ethereum",
  "devdoc": {
    "kind": "dev",
    "methods": {},
    "version": 1
  },
  "userdoc": {
    "errors": {
      "CourseHasOwner()": [
        {
          "notice": "O curso j possui um dono!"
        }
      ],
      "CourseIsNotCreated()": [
        {
          "notice": "O curso no foi criado!"
        }
      ],
      "InvalidState()": [
        {
          "notice": "No h um estado vlido para o curso!"
        }
      ],
      "OnlyOwner()": [
        {
          "notice": "Apenas o dono poder fazer essa operao!"
        }
      ],
      "SenderIsNotCourseOwner()": [
        {
          "notice": "O remetente no  o dono do curso!"
        }
      ]
    },
    "kind": "user",
    "methods": {},
    "version": 1
  }
}