{
  "contractName": "Gnose",
  "abi": [
    {
      "inputs": [],
      "stateMutability": "nonpayable",
      "type": "constructor"
    },
    {
      "inputs": [],
      "name": "CourseHasOwner",
      "type": "error"
    },
    {
      "inputs": [],
      "name": "CourseIsNotCreated",
      "type": "error"
    },
    {
      "inputs": [],
      "name": "InvalidState",
      "type": "error"
    },
    {
      "inputs": [],
      "name": "OnlyOwner",
      "type": "error"
    },
    {
      "inputs": [],
      "name": "SenderIsNotCourseOwner",
      "type": "error"
    },
    {
      "inputs": [],
      "name": "isStopped",
      "outputs": [
        {
          "internalType": "bool",
          "name": "",
          "type": "bool"
        }
      ],
      "stateMutability": "view",
      "type": "function",
      "constant": true
    },
    {
      "inputs": [
        {
          "internalType": "uint256",
          "name": "",
          "type": "uint256"
        }
      ],
      "name": "student",
      "outputs": [
        {
          "internalType": "address payable",
          "name": "walletAddress",
          "type": "address"
        },
        {
          "internalType": "string",
          "name": "skill",
          "type": "string"
        }
      ],
      "stateMutability": "view",
      "type": "function",
      "constant": true
    },
    {
      "stateMutability": "payable",
      "type": "receive",
      "payable": true
    },
    {
      "inputs": [
        {
          "internalType": "address payable",
          "name": "walletAddress",
          "type": "address"
        },
        {
          "internalType": "string",
          "name": "skill",
          "type": "string"
        }
      ],
      "name": "addSkill",
      "outputs": [],
      "stateMutability": "nonpayable",
      "type": "function"
    },
    {
      "inputs": [],
      "name": "balanceOf",
      "outputs": [
        {
          "internalType": "uint256",
          "name": "",
          "type": "uint256"
        }
      ],
      "stateMutability": "view",
      "type": "function",
      "constant": true
    },
    {
      "inputs": [
        {
          "internalType": "bytes32",
          "name": "courseHash",
          "type": "bytes32"
        }
      ],
      "name": "activateCourse",
      "outputs": [],
      "stateMutability": "nonpayable",
      "type": "function"
    },
    {
      "inputs": [],
      "name": "addFunds",
      "outputs": [],
      "stateMutability": "payable",
      "type": "function",
      "payable": true
    },
    {
      "inputs": [
        {
          "internalType": "uint256",
          "name": "withdrawAmount",
          "type": "uint256"
        }
      ],
      "name": "withdraw",
      "outputs": [],
      "stateMutability": "payable",
      "type": "function",
      "payable": true
    },
    {
      "inputs": [],
      "name": "emergencyWithdraw",
      "outputs": [],
      "stateMutability": "nonpayable",
      "type": "function"
    },
    {
      "inputs": [],
      "name": "selfDestruct",
      "outputs": [],
      "stateMutability": "nonpayable",
      "type": "function"
    },
    {
      "inputs": [],
      "name": "stopContract",
      "outputs": [],
      "stateMutability": "nonpayable",
      "type": "function"
    },
    {
      "inputs": [],
      "name": "resumeContract",
      "outputs": [],
      "stateMutability": "nonpayable",
      "type": "function"
    },
    {
      "inputs": [
        {
          "internalType": "bytes16",
          "name": "courseId",
          "type": "bytes16"
        }
      ],
      "name": "purchaseCourse",
      "outputs": [],
      "stateMutability": "payable",
      "type": "function",
      "payable": true
    },
    {
      "inputs": [
        {
          "internalType": "address",
          "name": "newOwner",
          "type": "address"
        }
      ],
      "name": "transferOwnership",
      "outputs": [],
      "stateMutability": "nonpayable",
      "type": "function"
    },
    {
      "inputs": [],
      "name": "getCourseCount",
      "outputs": [
        {
          "internalType": "uint256",
          "name": "",
          "type": "uint256"
        }
      ],
      "stateMutability": "view",
      "type": "function",
      "constant": true
    },
    {
      "inputs": [
        {
          "internalType": "uint256",
          "name": "index",
          "type": "uint256"
        }
      ],
      "name": "getCourseHashAtIndex",
      "outputs": [
        {
          "internalType": "bytes32",
          "name": "",
          "type": "bytes32"
        }
      ],
      "stateMutability": "view",
      "type": "function",
      "constant": true
    },
    {
      "inputs": [
        {
          "internalType": "bytes32",
          "name": "courseHash",
          "type": "bytes32"
        }
      ],
      "name": "getCourseByHash",
      "outputs": [
        {
          "components": [
            {
              "internalType": "uint256",
              "name": "id",
              "type": "uint256"
            },
            {
              "internalType": "uint256",
              "name": "price",
              "type": "uint256"
            },
            {
              "internalType": "address",
              "name": "owner",
              "type": "address"
            },
            {
              "internalType": "enum Gnose.State",
              "name": "state",
              "type": "uint8"
            }
          ],
          "internalType": "struct Gnose.Course",
          "name": "",
          "type": "tuple"
        }
      ],
      "stateMutability": "view",
      "type": "function",
      "constant": true
    },
    {
      "inputs": [],
      "name": "getContractOwner",
      "outputs": [
        {
          "internalType": "address",
          "name": "",
          "type": "address"
        }
      ],
      "stateMutability": "view",
      "type": "function",
      "constant": true
    }
  ],
  "bytecode": "0x60806040526000600160006101000a81548160ff02191690831515021790555034801561002b57600080fd5b5061003b3361004060201b60201c565b610084565b80600560006101000a81548173ffffffffffffffffffffffffffffffffffffffff021916908373ffffffffffffffffffffffffffffffffffffffff16021790555050565b6119fc806100936000396000f3fe6080604052600436106101025760003560e01c8063722713f711610095578063c4bc5da511610064578063c4bc5da5146102ef578063c58d550f14610306578063db2e21bc14610322578063ebb45f4f14610339578063f2fde38b1461036257610109565b8063722713f71461027857806396cfda06146102a35780639cb8a26a146102ce578063a26759cb146102e557610109565b80633f683b6a116100d15780633f683b6a146101a8578063442890d5146101d357806362e4e6ac146101fe5780636d11290b1461023b57610109565b806312253a6c1461010e5780632e1a7d4d1461012557806335f3423214610141578063392625721461017f57610109565b3661010957005b600080fd5b34801561011a57600080fd5b5061012361038b565b005b61013f600480360381019061013a9190610f2a565b610413565b005b34801561014d57600080fd5b5061016860048036038101906101639190610f2a565b61045d565b604051610176929190611031565b60405180910390f35b34801561018b57600080fd5b506101a660048036038101906101a19190611097565b610539565b005b3480156101b457600080fd5b506101bd610649565b6040516101ca91906110df565b60405180910390f35b3480156101df57600080fd5b506101e861065c565b6040516101f5919061111b565b60405180910390f35b34801561020a57600080fd5b5061022560048036038101906102209190611097565b610686565b6040516102329190611220565b60405180910390f35b34801561024757600080fd5b50610262600480360381019061025d9190610f2a565b610758565b60405161026f919061124a565b60405180910390f35b34801561028457600080fd5b5061028d610775565b60405161029a9190611274565b60405180910390f35b3480156102af57600080fd5b506102b861077d565b6040516102c59190611274565b60405180910390f35b3480156102da57600080fd5b506102e3610787565b005b6102ed610847565b005b3480156102fb57600080fd5b50610304610849565b005b610320600480360381019061031b91906112e7565b6108d2565b005b34801561032e57600080fd5b50610337610a7c565b005b34801561034557600080fd5b50610360600480360381019061035b9190611475565b610bd2565b005b34801561036e57600080fd5b50610389600480360381019061038491906114fd565b610cf7565b005b61039361065c565b73ffffffffffffffffffffffffffffffffffffffff163373ffffffffffffffffffffffffffffffffffffffff16146103f7576040517f5fc483c500000000000000000000000000000000000000000000000000000000815260040160405180910390fd5b60018060006101000a81548160ff021916908315150217905550565b3373ffffffffffffffffffffffffffffffffffffffff166108fc829081150290604051600060405180830381858888f19350505050158015610459573d6000803e3d6000fd5b5050565b6000818154811061046d57600080fd5b90600052602060002090600202016000915090508060000160009054906101000a900473ffffffffffffffffffffffffffffffffffffffff16908060010180546104b690611559565b80601f01602080910402602001604051908101604052809291908181526020018280546104e290611559565b801561052f5780601f106105045761010080835404028352916020019161052f565b820191906000526020600020905b81548152906001019060200180831161051257829003601f168201915b5050505050905082565b600160009054906101000a900460ff161561055357600080fd5b61055c81610d6f565b610592576040517f4db0c48300000000000000000000000000000000000000000000000000000000815260040160405180910390fd5b6000600360008381526020019081526020016000209050600060018111156105bd576105bc611154565b5b8160020160149054906101000a900460ff1660018111156105e1576105e0611154565b5b14610618576040517fbaf3f0f700000000000000000000000000000000000000000000000000000000815260040160405180910390fd5b60018160020160146101000a81548160ff021916908360018111156106405761063f611154565b5b02179055505050565b600160009054906101000a900460ff1681565b6000600560009054906101000a900473ffffffffffffffffffffffffffffffffffffffff16905090565b61068e610e90565b6003600083815260200190815260200160002060405180608001604052908160008201548152602001600182015481526020016002820160009054906101000a900473ffffffffffffffffffffffffffffffffffffffff1673ffffffffffffffffffffffffffffffffffffffff1673ffffffffffffffffffffffffffffffffffffffff1681526020016002820160149054906101000a900460ff16600181111561073b5761073a611154565b5b600181111561074d5761074c611154565b5b815250509050919050565b600060026000838152602001908152602001600020549050919050565b600047905090565b6000600454905090565b600160009054906101000a900460ff166107a057600080fd5b6107a861065c565b73ffffffffffffffffffffffffffffffffffffffff163373ffffffffffffffffffffffffffffffffffffffff161461080c576040517f5fc483c500000000000000000000000000000000000000000000000000000000815260040160405180910390fd5b600560009054906101000a900473ffffffffffffffffffffffffffffffffffffffff1673ffffffffffffffffffffffffffffffffffffffff16ff5b565b61085161065c565b73ffffffffffffffffffffffffffffffffffffffff163373ffffffffffffffffffffffffffffffffffffffff16146108b5576040517f5fc483c500000000000000000000000000000000000000000000000000000000815260040160405180910390fd5b6000600160006101000a81548160ff021916908315150217905550565b600160009054906101000a900460ff16156108ec57600080fd5b600081336040516020016109019291906115f3565b60405160208183030381529060405280519060200120905061092281610dde565b15610959576040517fb0fc2d9700000000000000000000000000000000000000000000000000000000815260040160405180910390fd5b60006004600081548092919061096e9061164e565b91905055905081600260008381526020019081526020016000208190555060405180608001604052808281526020013481526020013373ffffffffffffffffffffffffffffffffffffffff168152602001600060018111156109d3576109d2611154565b5b81525060036000848152602001908152602001600020600082015181600001556020820151816001015560408201518160020160006101000a81548173ffffffffffffffffffffffffffffffffffffffff021916908373ffffffffffffffffffffffffffffffffffffffff16021790555060608201518160020160146101000a81548160ff02191690836001811115610a6f57610a6e611154565b5b0217905550905050505050565b600160009054906101000a900460ff16610a9557600080fd5b610a9d61065c565b73ffffffffffffffffffffffffffffffffffffffff163373ffffffffffffffffffffffffffffffffffffffff1614610b01576040517f5fc483c500000000000000000000000000000000000000000000000000000000815260040160405180910390fd5b6000600560009054906101000a900473ffffffffffffffffffffffffffffffffffffffff1673ffffffffffffffffffffffffffffffffffffffff1647604051610b49906116c7565b60006040518083038185875af1925050503d8060008114610b86576040519150601f19603f3d011682016040523d82523d6000602084013e610b8b565b606091505b5050905080610bcf576040517f08c379a0000000000000000000000000000000000000000000000000000000008152600401610bc690611728565b60405180910390fd5b50565b610bda61065c565b73ffffffffffffffffffffffffffffffffffffffff163373ffffffffffffffffffffffffffffffffffffffff1614610c3e576040517f5fc483c500000000000000000000000000000000000000000000000000000000815260040160405180910390fd5b600060405180604001604052808473ffffffffffffffffffffffffffffffffffffffff16815260200183815250908060018154018082558091505060019003906000526020600020906002020160009091909190915060008201518160000160006101000a81548173ffffffffffffffffffffffffffffffffffffffff021916908373ffffffffffffffffffffffffffffffffffffffff1602179055506020820151816001019081610cf091906118f4565b5050505050565b610cff61065c565b73ffffffffffffffffffffffffffffffffffffffff163373ffffffffffffffffffffffffffffffffffffffff1614610d63576040517f5fc483c500000000000000000000000000000000000000000000000000000000815260040160405180910390fd5b610d6c81610e4c565b50565b60008073ffffffffffffffffffffffffffffffffffffffff166003600084815260200190815260200160002060020160009054906101000a900473ffffffffffffffffffffffffffffffffffffffff1673ffffffffffffffffffffffffffffffffffffffff1614159050919050565b60003373ffffffffffffffffffffffffffffffffffffffff166003600084815260200190815260200160002060020160009054906101000a900473ffffffffffffffffffffffffffffffffffffffff1673ffffffffffffffffffffffffffffffffffffffff16149050919050565b80600560006101000a81548173ffffffffffffffffffffffffffffffffffffffff021916908373ffffffffffffffffffffffffffffffffffffffff16021790555050565b60405180608001604052806000815260200160008152602001600073ffffffffffffffffffffffffffffffffffffffff16815260200160006001811115610eda57610ed9611154565b5b81525090565b6000604051905090565b600080fd5b600080fd5b6000819050919050565b610f0781610ef4565b8114610f1257600080fd5b50565b600081359050610f2481610efe565b92915050565b600060208284031215610f4057610f3f610eea565b5b6000610f4e84828501610f15565b91505092915050565b600073ffffffffffffffffffffffffffffffffffffffff82169050919050565b6000610f8282610f57565b9050919050565b610f9281610f77565b82525050565b600081519050919050565b600082825260208201905092915050565b60005b83811015610fd2578082015181840152602081019050610fb7565b83811115610fe1576000848401525b50505050565b6000601f19601f8301169050919050565b600061100382610f98565b61100d8185610fa3565b935061101d818560208601610fb4565b61102681610fe7565b840191505092915050565b60006040820190506110466000830185610f89565b81810360208301526110588184610ff8565b90509392505050565b6000819050919050565b61107481611061565b811461107f57600080fd5b50565b6000813590506110918161106b565b92915050565b6000602082840312156110ad576110ac610eea565b5b60006110bb84828501611082565b91505092915050565b60008115159050919050565b6110d9816110c4565b82525050565b60006020820190506110f460008301846110d0565b92915050565b600061110582610f57565b9050919050565b611115816110fa565b82525050565b6000602082019050611130600083018461110c565b92915050565b61113f81610ef4565b82525050565b61114e816110fa565b82525050565b7f4e487b7100000000000000000000000000000000000000000000000000000000600052602160045260246000fd5b6002811061119457611193611154565b5b50565b60008190506111a582611183565b919050565b60006111b582611197565b9050919050565b6111c5816111aa565b82525050565b6080820160008201516111e16000850182611136565b5060208201516111f46020850182611136565b5060408201516112076040850182611145565b50606082015161121a60608501826111bc565b50505050565b600060808201905061123560008301846111cb565b92915050565b61124481611061565b82525050565b600060208201905061125f600083018461123b565b92915050565b61126e81610ef4565b82525050565b60006020820190506112896000830184611265565b92915050565b60007fffffffffffffffffffffffffffffffff0000000000000000000000000000000082169050919050565b6112c48161128f565b81146112cf57600080fd5b50565b6000813590506112e1816112bb565b92915050565b6000602082840312156112fd576112fc610eea565b5b600061130b848285016112d2565b91505092915050565b61131d81610f77565b811461132857600080fd5b50565b60008135905061133a81611314565b92915050565b600080fd5b600080fd5b7f4e487b7100000000000000000000000000000000000000000000000000000000600052604160045260246000fd5b61138282610fe7565b810181811067ffffffffffffffff821117156113a1576113a061134a565b5b80604052505050565b60006113b4610ee0565b90506113c08282611379565b919050565b600067ffffffffffffffff8211156113e0576113df61134a565b5b6113e982610fe7565b9050602081019050919050565b82818337600083830152505050565b6000611418611413846113c5565b6113aa565b90508281526020810184848401111561143457611433611345565b5b61143f8482856113f6565b509392505050565b600082601f83011261145c5761145b611340565b5b813561146c848260208601611405565b91505092915050565b6000806040838503121561148c5761148b610eea565b5b600061149a8582860161132b565b925050602083013567ffffffffffffffff8111156114bb576114ba610eef565b5b6114c785828601611447565b9150509250929050565b6114da816110fa565b81146114e557600080fd5b50565b6000813590506114f7816114d1565b92915050565b60006020828403121561151357611512610eea565b5b6000611521848285016114e8565b91505092915050565b7f4e487b7100000000000000000000000000000000000000000000000000000000600052602260045260246000fd5b6000600282049050600182168061157157607f821691505b6020821081036115845761158361152a565b5b50919050565b6000819050919050565b6115a56115a08261128f565b61158a565b82525050565b60008160601b9050919050565b60006115c3826115ab565b9050919050565b60006115d5826115b8565b9050919050565b6115ed6115e8826110fa565b6115ca565b82525050565b60006115ff8285611594565b60108201915061160f82846115dc565b6014820191508190509392505050565b7f4e487b7100000000000000000000000000000000000000000000000000000000600052601160045260246000fd5b600061165982610ef4565b91507fffffffffffffffffffffffffffffffffffffffffffffffffffffffffffffffff820361168b5761168a61161f565b5b600182019050919050565b600081905092915050565b50565b60006116b1600083611696565b91506116bc826116a1565b600082019050919050565b60006116d2826116a4565b9150819050919050565b7f5472616e73666572656e6369612066616c686f752e0000000000000000000000600082015250565b6000611712601583610fa3565b915061171d826116dc565b602082019050919050565b6000602082019050818103600083015261174181611705565b9050919050565b60008190508160005260206000209050919050565b60006020601f8301049050919050565b600082821b905092915050565b6000600883026117aa7fffffffffffffffffffffffffffffffffffffffffffffffffffffffffffffffff8261176d565b6117b4868361176d565b95508019841693508086168417925050509392505050565b6000819050919050565b60006117f16117ec6117e784610ef4565b6117cc565b610ef4565b9050919050565b6000819050919050565b61180b836117d6565b61181f611817826117f8565b84845461177a565b825550505050565b600090565b611834611827565b61183f818484611802565b505050565b5b818110156118635761185860008261182c565b600181019050611845565b5050565b601f8211156118a85761187981611748565b6118828461175d565b81016020851015611891578190505b6118a561189d8561175d565b830182611844565b50505b505050565b600082821c905092915050565b60006118cb600019846008026118ad565b1980831691505092915050565b60006118e483836118ba565b9150826002028217905092915050565b6118fd82610f98565b67ffffffffffffffff8111156119165761191561134a565b5b6119208254611559565b61192b828285611867565b600060209050601f83116001811461195e576000841561194c578287015190505b61195685826118d8565b8655506119be565b601f19841661196c86611748565b60005b828110156119945784890151825560018201915060208501945060208101905061196f565b868310156119b157848901516119ad601f8916826118ba565b8355505b6001600288020188555050505b50505050505056fea26469706673582212200c0f442a139c556ff99ea23cf7c0b7bb1dd276de3aa83b5735796eb65f2141bf64736f6c634300080f0033",
  "immutableReferences": {},
  "source": "// SPDX-License-Identifier: MIT\r\npragma solidity >=0.4.22 <0.9.0;\r\n\r\n\r\n//trs estados dos cursos/aulas/matrias\r\n//so representados por nmeros a partir do 0\r\ncontract Gnose {\r\n    enum State {Purchased, Activated}\r\n\r\n    struct Course{\r\n        uint id; //32\r\n        uint price; //32\r\n        address owner; //20\r\n        State state; //1\r\n    }\r\n\r\n\r\n    struct Student {\r\n        address payable walletAddress;\r\n        string skill;\r\n    }\r\n\r\n    Student[] public student;\r\n\r\n    function addSkill(address payable walletAddress, string memory skill) public onlyOwner {\r\n        student.push(Student(\r\n            walletAddress,\r\n            skill)\r\n        );\r\n    }\r\n\r\n\r\n    function balanceOf() public view returns(uint) {\r\n        return address(this).balance;\r\n    }\r\n\r\n\r\n    bool public isStopped = false;\r\n     \r\n\r\n    //mapping do courseId para o courseHash\r\n    mapping(uint => bytes32) private ownedCourseHash;\r\n\r\n    //mapping do courseHash para os dados do Course\r\n    mapping(bytes32 => Course) private ownedCourses;\r\n\r\n\r\n    //nmero de todos os cursos + id dos cursos\r\n    uint private totalOwnedCourses;\r\n\r\n    //professores - instrutores\r\n    address payable private owner; \r\n\r\n    constructor(){\r\n        setContractOwner(msg.sender);\r\n    }\r\n\r\n    ///No h um estado vlido para o curso!\r\n    error InvalidState();\r\n\r\n    ///O curso no foi criado!\r\n    error CourseIsNotCreated();\r\n\r\n    /// O remetente no  o dono do curso!\r\n    error SenderIsNotCourseOwner();\r\n\r\n    ///O curso j possui um dono!\r\n    error CourseHasOwner();\r\n\r\n    ///Apenas o dono poder fazer essa operao!\r\n    error OnlyOwner();\r\n\r\n\r\n    //apenas o dono do contrato pode alterar o acesso de outro dono do curso\r\n    modifier onlyOwner() {\r\n        if (msg.sender != getContractOwner()) {\r\n        revert OnlyOwner();\r\n        }\r\n        _;\r\n    }\r\n\r\n    modifier onlyWhenNotStopped {\r\n        require(!isStopped);\r\n        _;\r\n    }\r\n\r\n    modifier onlyWhenStopped {\r\n        require(isStopped);\r\n        _;\r\n    }\r\n\r\n    receive() external payable {}\r\n\r\n    // function repurchaseCourse(bytes32 courseHash) external payable onlyWhenNotStopped{\r\n    //     if (!isCourseCreated(courseHash)) {\r\n    //         revert CourseIsNotCreated();\r\n    //     }\r\n\r\n    //     if(!hasCourseOwnership(courseHash)) {\r\n    //         revert SenderIsNotCourseOwner();\r\n    //     }\r\n\r\n    // Course storage course = ownedCourses[courseHash];\r\n\r\n    //     if (course.state != State.Deactivated) {\r\n    //     revert InvalidState();\r\n    //     }\r\n\r\n    //     course.state = State.Purchased;\r\n    //     course.price = msg.value;\r\n    // }\r\n\r\n\r\n    function activateCourse(bytes32 courseHash) external onlyWhenNotStopped{\r\n        //recebe o hash do curso\r\n        //tal request foi enviado pelo dono da transao\r\n        //se o curso no for criado, ir reverter o contrato\r\n        if(!isCourseCreated(courseHash)){\r\n            revert CourseIsNotCreated();\r\n        }\r\n\r\n        Course storage course = ownedCourses[courseHash];\r\n\r\n        if(course.state != State.Purchased){\r\n            revert InvalidState();\r\n        }\r\n        course.state = State.Activated;\r\n    }\r\n\r\n    function addFunds() external payable {\r\n    }\r\n\r\n    // function withdraw(uint amount) external payable{\r\n        \r\n    //     (bool success, ) = owner.call{value: amount}(\"\");\r\n    //     require(success, \"Falha na transferencia\");\r\n    // }\r\n\r\n    function withdraw(uint withdrawAmount) payable external {\r\n        payable(msg.sender).transfer(withdrawAmount);\r\n  }\r\n\r\n    //saca o valor total do contrato para o dono do contrato em caso de falhas ou erros\r\n    function emergencyWithdraw() external onlyWhenStopped onlyOwner{\r\n        (bool success, ) = owner.call{value: address(this).balance}(\"\");\r\n        require(success, \"Transferencia falhou.\");\r\n    }\r\n\r\n    //transfere o valor total do contrato para o dono do contrato quando o contrato for destruido\r\n    function selfDestruct() external onlyWhenStopped onlyOwner {\r\n        selfdestruct(owner);\r\n    }\r\n\r\n    function stopContract() external onlyOwner {\r\n        isStopped = true;\r\n    }\r\n\r\n  function resumeContract() external onlyOwner {\r\n        isStopped = false;\r\n    }\r\n\r\n//[ID do curso] ASCII -> DEC | transforma em 16 bytes\r\n//[id do curso + msg sender] -> KECCAK -> HEX -> hash do curso\r\n\r\n    function purchaseCourse(bytes16 courseId) external payable onlyWhenNotStopped{\r\n        bytes32 courseHash = keccak256(abi.encodePacked(courseId, msg.sender));\r\n\r\n        if(hasCourseOwnership(courseHash)){\r\n            revert CourseHasOwner();\r\n        }\r\n\r\n        uint id = totalOwnedCourses++;\r\n        ownedCourseHash[id] = courseHash;\r\n        ownedCourses[courseHash] = Course({\r\n            id: id, price: msg.value, owner: msg.sender, state: State.Purchased\r\n        });\r\n    }\r\n\r\n\r\n    function transferOwnership(address newOwner) external onlyOwner {\r\n        setContractOwner(newOwner);\r\n    }\r\n\r\n    function getCourseCount() external view returns(uint) {\r\n        return totalOwnedCourses;\r\n    }\r\n\r\n    function getCourseHashAtIndex(uint index) external view returns(bytes32) {\r\n        return ownedCourseHash[index];\r\n    }\r\n\r\n    function getCourseByHash(bytes32 courseHash) external view returns(Course memory) {\r\n        return ownedCourses[courseHash];\r\n    }\r\n\r\n    function getContractOwner() public view returns(address) {\r\n        return owner;\r\n    }\r\n\r\n    function setContractOwner(address newOwner) private {\r\n        owner = payable(newOwner);\r\n    }\r\n\r\n    function isCourseCreated(bytes32 courseHash) private view returns(bool) {\r\n        return ownedCourses[courseHash].owner != 0x0000000000000000000000000000000000000000;\r\n    }\r\n\r\n    function hasCourseOwnership(bytes32 courseHash) private view returns(bool) {\r\n        return ownedCourses[courseHash].owner == msg.sender;\r\n    }\r\n}  ",
  "sourcePath": "C:\\Users\\samue\\Videos\\gnosePlace\\contracts\\Gnose.sol",
  "compiler": {
    "name": "solc",
    "version": "0.8.15+commit.e14f2714.Emscripten.clang"
  },
  "schemaVersion": "3.4.8",
  "updatedAt": "2023-01-27T00:27:01.355Z",
  "networkType": "ethereum",
  "devdoc": {
    "kind": "dev",
    "methods": {},
    "version": 1
  },
  "userdoc": {
    "errors": {
      "CourseHasOwner()": [
        {
          "notice": "O curso j possui um dono!"
        }
      ],
      "CourseIsNotCreated()": [
        {
          "notice": "O curso no foi criado!"
        }
      ],
      "InvalidState()": [
        {
          "notice": "No h um estado vlido para o curso!"
        }
      ],
      "OnlyOwner()": [
        {
          "notice": "Apenas o dono poder fazer essa operao!"
        }
      ],
      "SenderIsNotCourseOwner()": [
        {
          "notice": "O remetente no  o dono do curso!"
        }
      ]
    },
    "kind": "user",
    "methods": {},
    "version": 1
  }
}