{
  "contractName": "Gnose",
  "abi": [
    {
      "inputs": [],
      "stateMutability": "nonpayable",
      "type": "constructor"
    },
    {
      "inputs": [],
      "name": "CourseHasOwner",
      "type": "error"
    },
    {
      "inputs": [],
      "name": "CourseIsNotCreated",
      "type": "error"
    },
    {
      "inputs": [],
      "name": "InvalidState",
      "type": "error"
    },
    {
      "inputs": [],
      "name": "OnlyOwner",
      "type": "error"
    },
    {
      "inputs": [],
      "name": "SenderIsNotCourseOwner",
      "type": "error"
    },
    {
      "inputs": [],
      "name": "isStopped",
      "outputs": [
        {
          "internalType": "bool",
          "name": "",
          "type": "bool"
        }
      ],
      "stateMutability": "view",
      "type": "function",
      "constant": true
    },
    {
      "inputs": [
        {
          "internalType": "uint256",
          "name": "",
          "type": "uint256"
        }
      ],
      "name": "student",
      "outputs": [
        {
          "internalType": "address payable",
          "name": "walletAddress",
          "type": "address"
        },
        {
          "internalType": "string",
          "name": "skill",
          "type": "string"
        }
      ],
      "stateMutability": "view",
      "type": "function",
      "constant": true
    },
    {
      "stateMutability": "payable",
      "type": "receive",
      "payable": true
    },
    {
      "inputs": [
        {
          "internalType": "address payable",
          "name": "walletAddress",
          "type": "address"
        },
        {
          "internalType": "string",
          "name": "skill",
          "type": "string"
        }
      ],
      "name": "addSkill",
      "outputs": [],
      "stateMutability": "nonpayable",
      "type": "function"
    },
    {
      "inputs": [
        {
          "internalType": "address",
          "name": "walletAddress",
          "type": "address"
        }
      ],
      "name": "getIndex",
      "outputs": [
        {
          "internalType": "uint256",
          "name": "",
          "type": "uint256"
        }
      ],
      "stateMutability": "view",
      "type": "function",
      "constant": true
    },
    {
      "inputs": [],
      "name": "balanceOf",
      "outputs": [
        {
          "internalType": "uint256",
          "name": "",
          "type": "uint256"
        }
      ],
      "stateMutability": "view",
      "type": "function",
      "constant": true
    },
    {
      "inputs": [
        {
          "internalType": "bytes32",
          "name": "courseHash",
          "type": "bytes32"
        }
      ],
      "name": "activateCourse",
      "outputs": [],
      "stateMutability": "nonpayable",
      "type": "function"
    },
    {
      "inputs": [],
      "name": "addFunds",
      "outputs": [],
      "stateMutability": "payable",
      "type": "function",
      "payable": true
    },
    {
      "inputs": [
        {
          "internalType": "uint256",
          "name": "withdrawAmount",
          "type": "uint256"
        }
      ],
      "name": "withdraw",
      "outputs": [],
      "stateMutability": "payable",
      "type": "function",
      "payable": true
    },
    {
      "inputs": [],
      "name": "stopContract",
      "outputs": [],
      "stateMutability": "nonpayable",
      "type": "function"
    },
    {
      "inputs": [],
      "name": "resumeContract",
      "outputs": [],
      "stateMutability": "nonpayable",
      "type": "function"
    },
    {
      "inputs": [
        {
          "internalType": "bytes16",
          "name": "courseId",
          "type": "bytes16"
        }
      ],
      "name": "purchaseCourse",
      "outputs": [],
      "stateMutability": "payable",
      "type": "function",
      "payable": true
    },
    {
      "inputs": [
        {
          "internalType": "address",
          "name": "newOwner",
          "type": "address"
        }
      ],
      "name": "transferOwnership",
      "outputs": [],
      "stateMutability": "nonpayable",
      "type": "function"
    },
    {
      "inputs": [],
      "name": "getCourseCount",
      "outputs": [
        {
          "internalType": "uint256",
          "name": "",
          "type": "uint256"
        }
      ],
      "stateMutability": "view",
      "type": "function",
      "constant": true
    },
    {
      "inputs": [
        {
          "internalType": "uint256",
          "name": "index",
          "type": "uint256"
        }
      ],
      "name": "getCourseHashAtIndex",
      "outputs": [
        {
          "internalType": "bytes32",
          "name": "",
          "type": "bytes32"
        }
      ],
      "stateMutability": "view",
      "type": "function",
      "constant": true
    },
    {
      "inputs": [
        {
          "internalType": "bytes32",
          "name": "courseHash",
          "type": "bytes32"
        }
      ],
      "name": "getCourseByHash",
      "outputs": [
        {
          "components": [
            {
              "internalType": "uint256",
              "name": "id",
              "type": "uint256"
            },
            {
              "internalType": "uint256",
              "name": "price",
              "type": "uint256"
            },
            {
              "internalType": "address",
              "name": "owner",
              "type": "address"
            },
            {
              "internalType": "enum Gnose.State",
              "name": "state",
              "type": "uint8"
            }
          ],
          "internalType": "struct Gnose.Course",
          "name": "",
          "type": "tuple"
        }
      ],
      "stateMutability": "view",
      "type": "function",
      "constant": true
    },
    {
      "inputs": [],
      "name": "getContractOwner",
      "outputs": [
        {
          "internalType": "address",
          "name": "",
          "type": "address"
        }
      ],
      "stateMutability": "view",
      "type": "function",
      "constant": true
    }
  ],
  "bytecode": "0x60806040526000600160006101000a81548160ff02191690831515021790555034801561002b57600080fd5b5061003b3361004060201b60201c565b610084565b80600560006101000a81548173ffffffffffffffffffffffffffffffffffffffff021916908373ffffffffffffffffffffffffffffffffffffffff16021790555050565b61181c806100936000396000f3fe6080604052600436106100f75760003560e01c8063722713f71161008a578063c4bc5da511610059578063c4bc5da51461030a578063c58d550f14610321578063ebb45f4f1461033d578063f2fde38b14610366576100fe565b8063722713f71461026d57806396cfda0614610298578063a26759cb146102c3578063b31610db146102cd576100fe565b80633f683b6a116100c65780633f683b6a1461019d578063442890d5146101c857806362e4e6ac146101f35780636d11290b14610230576100fe565b806312253a6c146101035780632e1a7d4d1461011a57806335f34232146101365780633926257214610174576100fe565b366100fe57005b600080fd5b34801561010f57600080fd5b5061011861038f565b005b610134600480360381019061012f9190610dcd565b610417565b005b34801561014257600080fd5b5061015d60048036038101906101589190610dcd565b610461565b60405161016b929190610ed4565b60405180910390f35b34801561018057600080fd5b5061019b60048036038101906101969190610f3a565b61053d565b005b3480156101a957600080fd5b506101b261064d565b6040516101bf9190610f82565b60405180910390f35b3480156101d457600080fd5b506101dd610660565b6040516101ea9190610fbe565b60405180910390f35b3480156101ff57600080fd5b5061021a60048036038101906102159190610f3a565b61068a565b60405161022791906110c3565b60405180910390f35b34801561023c57600080fd5b5061025760048036038101906102529190610dcd565b61075c565b60405161026491906110ed565b60405180910390f35b34801561027957600080fd5b50610282610779565b60405161028f9190611117565b60405180910390f35b3480156102a457600080fd5b506102ad610781565b6040516102ba9190611117565b60405180910390f35b6102cb61078b565b005b3480156102d957600080fd5b506102f460048036038101906102ef919061115e565b61078d565b6040516103019190611117565b60405180910390f35b34801561031657600080fd5b5061031f610842565b005b61033b600480360381019061033691906111e3565b6108cb565b005b34801561034957600080fd5b50610364600480360381019061035f9190611371565b610a75565b005b34801561037257600080fd5b5061038d6004803603810190610388919061115e565b610b9a565b005b610397610660565b73ffffffffffffffffffffffffffffffffffffffff163373ffffffffffffffffffffffffffffffffffffffff16146103fb576040517f5fc483c500000000000000000000000000000000000000000000000000000000815260040160405180910390fd5b60018060006101000a81548160ff021916908315150217905550565b3373ffffffffffffffffffffffffffffffffffffffff166108fc829081150290604051600060405180830381858888f1935050505015801561045d573d6000803e3d6000fd5b5050565b6000818154811061047157600080fd5b90600052602060002090600202016000915090508060000160009054906101000a900473ffffffffffffffffffffffffffffffffffffffff16908060010180546104ba906113fc565b80601f01602080910402602001604051908101604052809291908181526020018280546104e6906113fc565b80156105335780601f1061050857610100808354040283529160200191610533565b820191906000526020600020905b81548152906001019060200180831161051657829003601f168201915b5050505050905082565b600160009054906101000a900460ff161561055757600080fd5b61056081610c12565b610596576040517f4db0c48300000000000000000000000000000000000000000000000000000000815260040160405180910390fd5b6000600360008381526020019081526020016000209050600060018111156105c1576105c0610ff7565b5b8160020160149054906101000a900460ff1660018111156105e5576105e4610ff7565b5b1461061c576040517fbaf3f0f700000000000000000000000000000000000000000000000000000000815260040160405180910390fd5b60018160020160146101000a81548160ff0219169083600181111561064457610643610ff7565b5b02179055505050565b600160009054906101000a900460ff1681565b6000600560009054906101000a900473ffffffffffffffffffffffffffffffffffffffff16905090565b610692610d33565b6003600083815260200190815260200160002060405180608001604052908160008201548152602001600182015481526020016002820160009054906101000a900473ffffffffffffffffffffffffffffffffffffffff1673ffffffffffffffffffffffffffffffffffffffff1673ffffffffffffffffffffffffffffffffffffffff1681526020016002820160149054906101000a900460ff16600181111561073f5761073e610ff7565b5b600181111561075157610750610ff7565b5b815250509050919050565b600060026000838152602001908152602001600020549050919050565b600047905090565b6000600454905090565b565b600080600090505b600080549050811015610836578273ffffffffffffffffffffffffffffffffffffffff16600082815481106107cd576107cc61142d565b5b906000526020600020906002020160000160009054906101000a900473ffffffffffffffffffffffffffffffffffffffff1673ffffffffffffffffffffffffffffffffffffffff1603610823578091505061083d565b808061082e9061148b565b915050610795565b506103e790505b919050565b61084a610660565b73ffffffffffffffffffffffffffffffffffffffff163373ffffffffffffffffffffffffffffffffffffffff16146108ae576040517f5fc483c500000000000000000000000000000000000000000000000000000000815260040160405180910390fd5b6000600160006101000a81548160ff021916908315150217905550565b600160009054906101000a900460ff16156108e557600080fd5b600081336040516020016108fa92919061153c565b60405160208183030381529060405280519060200120905061091b81610c81565b15610952576040517fb0fc2d9700000000000000000000000000000000000000000000000000000000815260040160405180910390fd5b6000600460008154809291906109679061148b565b91905055905081600260008381526020019081526020016000208190555060405180608001604052808281526020013481526020013373ffffffffffffffffffffffffffffffffffffffff168152602001600060018111156109cc576109cb610ff7565b5b81525060036000848152602001908152602001600020600082015181600001556020820151816001015560408201518160020160006101000a81548173ffffffffffffffffffffffffffffffffffffffff021916908373ffffffffffffffffffffffffffffffffffffffff16021790555060608201518160020160146101000a81548160ff02191690836001811115610a6857610a67610ff7565b5b0217905550905050505050565b610a7d610660565b73ffffffffffffffffffffffffffffffffffffffff163373ffffffffffffffffffffffffffffffffffffffff1614610ae1576040517f5fc483c500000000000000000000000000000000000000000000000000000000815260040160405180910390fd5b600060405180604001604052808473ffffffffffffffffffffffffffffffffffffffff16815260200183815250908060018154018082558091505060019003906000526020600020906002020160009091909190915060008201518160000160006101000a81548173ffffffffffffffffffffffffffffffffffffffff021916908373ffffffffffffffffffffffffffffffffffffffff1602179055506020820151816001019081610b939190611714565b5050505050565b610ba2610660565b73ffffffffffffffffffffffffffffffffffffffff163373ffffffffffffffffffffffffffffffffffffffff1614610c06576040517f5fc483c500000000000000000000000000000000000000000000000000000000815260040160405180910390fd5b610c0f81610cef565b50565b60008073ffffffffffffffffffffffffffffffffffffffff166003600084815260200190815260200160002060020160009054906101000a900473ffffffffffffffffffffffffffffffffffffffff1673ffffffffffffffffffffffffffffffffffffffff1614159050919050565b60003373ffffffffffffffffffffffffffffffffffffffff166003600084815260200190815260200160002060020160009054906101000a900473ffffffffffffffffffffffffffffffffffffffff1673ffffffffffffffffffffffffffffffffffffffff16149050919050565b80600560006101000a81548173ffffffffffffffffffffffffffffffffffffffff021916908373ffffffffffffffffffffffffffffffffffffffff16021790555050565b60405180608001604052806000815260200160008152602001600073ffffffffffffffffffffffffffffffffffffffff16815260200160006001811115610d7d57610d7c610ff7565b5b81525090565b6000604051905090565b600080fd5b600080fd5b6000819050919050565b610daa81610d97565b8114610db557600080fd5b50565b600081359050610dc781610da1565b92915050565b600060208284031215610de357610de2610d8d565b5b6000610df184828501610db8565b91505092915050565b600073ffffffffffffffffffffffffffffffffffffffff82169050919050565b6000610e2582610dfa565b9050919050565b610e3581610e1a565b82525050565b600081519050919050565b600082825260208201905092915050565b60005b83811015610e75578082015181840152602081019050610e5a565b83811115610e84576000848401525b50505050565b6000601f19601f8301169050919050565b6000610ea682610e3b565b610eb08185610e46565b9350610ec0818560208601610e57565b610ec981610e8a565b840191505092915050565b6000604082019050610ee96000830185610e2c565b8181036020830152610efb8184610e9b565b90509392505050565b6000819050919050565b610f1781610f04565b8114610f2257600080fd5b50565b600081359050610f3481610f0e565b92915050565b600060208284031215610f5057610f4f610d8d565b5b6000610f5e84828501610f25565b91505092915050565b60008115159050919050565b610f7c81610f67565b82525050565b6000602082019050610f976000830184610f73565b92915050565b6000610fa882610dfa565b9050919050565b610fb881610f9d565b82525050565b6000602082019050610fd36000830184610faf565b92915050565b610fe281610d97565b82525050565b610ff181610f9d565b82525050565b7f4e487b7100000000000000000000000000000000000000000000000000000000600052602160045260246000fd5b6002811061103757611036610ff7565b5b50565b600081905061104882611026565b919050565b60006110588261103a565b9050919050565b6110688161104d565b82525050565b6080820160008201516110846000850182610fd9565b5060208201516110976020850182610fd9565b5060408201516110aa6040850182610fe8565b5060608201516110bd606085018261105f565b50505050565b60006080820190506110d8600083018461106e565b92915050565b6110e781610f04565b82525050565b600060208201905061110260008301846110de565b92915050565b61111181610d97565b82525050565b600060208201905061112c6000830184611108565b92915050565b61113b81610f9d565b811461114657600080fd5b50565b60008135905061115881611132565b92915050565b60006020828403121561117457611173610d8d565b5b600061118284828501611149565b91505092915050565b60007fffffffffffffffffffffffffffffffff0000000000000000000000000000000082169050919050565b6111c08161118b565b81146111cb57600080fd5b50565b6000813590506111dd816111b7565b92915050565b6000602082840312156111f9576111f8610d8d565b5b6000611207848285016111ce565b91505092915050565b61121981610e1a565b811461122457600080fd5b50565b60008135905061123681611210565b92915050565b600080fd5b600080fd5b7f4e487b7100000000000000000000000000000000000000000000000000000000600052604160045260246000fd5b61127e82610e8a565b810181811067ffffffffffffffff8211171561129d5761129c611246565b5b80604052505050565b60006112b0610d83565b90506112bc8282611275565b919050565b600067ffffffffffffffff8211156112dc576112db611246565b5b6112e582610e8a565b9050602081019050919050565b82818337600083830152505050565b600061131461130f846112c1565b6112a6565b9050828152602081018484840111156113305761132f611241565b5b61133b8482856112f2565b509392505050565b600082601f8301126113585761135761123c565b5b8135611368848260208601611301565b91505092915050565b6000806040838503121561138857611387610d8d565b5b600061139685828601611227565b925050602083013567ffffffffffffffff8111156113b7576113b6610d92565b5b6113c385828601611343565b9150509250929050565b7f4e487b7100000000000000000000000000000000000000000000000000000000600052602260045260246000fd5b6000600282049050600182168061141457607f821691505b602082108103611427576114266113cd565b5b50919050565b7f4e487b7100000000000000000000000000000000000000000000000000000000600052603260045260246000fd5b7f4e487b7100000000000000000000000000000000000000000000000000000000600052601160045260246000fd5b600061149682610d97565b91507fffffffffffffffffffffffffffffffffffffffffffffffffffffffffffffffff82036114c8576114c761145c565b5b600182019050919050565b6000819050919050565b6114ee6114e98261118b565b6114d3565b82525050565b60008160601b9050919050565b600061150c826114f4565b9050919050565b600061151e82611501565b9050919050565b61153661153182610f9d565b611513565b82525050565b600061154882856114dd565b6010820191506115588284611525565b6014820191508190509392505050565b60008190508160005260206000209050919050565b60006020601f8301049050919050565b600082821b905092915050565b6000600883026115ca7fffffffffffffffffffffffffffffffffffffffffffffffffffffffffffffffff8261158d565b6115d4868361158d565b95508019841693508086168417925050509392505050565b6000819050919050565b600061161161160c61160784610d97565b6115ec565b610d97565b9050919050565b6000819050919050565b61162b836115f6565b61163f61163782611618565b84845461159a565b825550505050565b600090565b611654611647565b61165f818484611622565b505050565b5b818110156116835761167860008261164c565b600181019050611665565b5050565b601f8211156116c85761169981611568565b6116a28461157d565b810160208510156116b1578190505b6116c56116bd8561157d565b830182611664565b50505b505050565b600082821c905092915050565b60006116eb600019846008026116cd565b1980831691505092915050565b600061170483836116da565b9150826002028217905092915050565b61171d82610e3b565b67ffffffffffffffff81111561173657611735611246565b5b61174082546113fc565b61174b828285611687565b600060209050601f83116001811461177e576000841561176c578287015190505b61177685826116f8565b8655506117de565b601f19841661178c86611568565b60005b828110156117b45784890151825560018201915060208501945060208101905061178f565b868310156117d157848901516117cd601f8916826116da565b8355505b6001600288020188555050505b50505050505056fea26469706673582212207c7dde77a23bbecece29631fa9e7e1fc5394d3c779b722510546ff6854ee319164736f6c634300080f0033",
  "immutableReferences": {},
  "source": "// SPDX-License-Identifier: MIT\r\npragma solidity >=0.4.22 < 0.9.0;\r\n\r\n\r\n//dois estados dos cursos/aulas\r\n//so representados por nmeros a partir do 0\r\ncontract Gnose {\r\n    enum State {Purchased, Activated}\r\n\r\n    struct Course{\r\n        uint id; //32\r\n        uint price; //32\r\n        address owner; //20\r\n        State state; //1\r\n    }\r\n\r\n    struct Student {\r\n        address payable walletAddress;\r\n        string skill;\r\n    }\r\n\r\n    Student[] public student;\r\n\r\n    function addSkill(address payable walletAddress, string memory skill) public onlyOwner {\r\n        student.push(Student(walletAddress, skill));\r\n    }\r\n\r\n    function getIndex(address walletAddress) view public returns(uint) {\r\n        for(uint i = 0; i < student.length; i++) {\r\n            if (student[i].walletAddress == walletAddress) {\r\n                return i;\r\n            }\r\n        }\r\n        return 999;\r\n    }\r\n\r\n\r\n    function balanceOf() public view returns(uint) {\r\n        return address(this).balance;\r\n    }\r\n\r\n\r\n    bool public isStopped = false;\r\n\r\n    //mapping do courseId para o courseHash\r\n    mapping(uint => bytes32) private ownedCourseHash;\r\n\r\n    //mapping do courseHash para os dados do Course\r\n    mapping(bytes32 => Course) private ownedCourses;\r\n\r\n    //nmero de todos os cursos + id dos cursos\r\n    uint private totalOwnedCourses;\r\n\r\n    //dono do contrato\r\n    address payable private owner; \r\n\r\n    constructor(){\r\n        setContractOwner(msg.sender);\r\n    }\r\n\r\n    ///No h um estado vlido para o curso!\r\n    error InvalidState();\r\n\r\n    ///O curso no foi criado!\r\n    error CourseIsNotCreated();\r\n\r\n    /// O remetente no  o dono do curso!\r\n    error SenderIsNotCourseOwner();\r\n\r\n    ///O curso j possui um dono!\r\n    error CourseHasOwner();\r\n\r\n    ///Apenas o dono poder fazer essa operao!\r\n    error OnlyOwner();\r\n\r\n\r\n    modifier onlyOwner() {\r\n        if (msg.sender != getContractOwner()) {\r\n        revert OnlyOwner();\r\n        }\r\n        _;\r\n    }\r\n\r\n    modifier onlyWhenNotStopped {\r\n        require(!isStopped);\r\n        _;\r\n    }\r\n\r\n    modifier onlyWhenStopped {\r\n        require(isStopped);\r\n        _;\r\n    }\r\n\r\n    receive() external payable {}\r\n\r\n    function activateCourse(bytes32 courseHash) external onlyWhenNotStopped{\r\n        //recebe o hash do curso\r\n        //se o curso no for criado, ir reverter o contrato\r\n        if(!isCourseCreated(courseHash)){\r\n            revert CourseIsNotCreated();\r\n        }\r\n\r\n        Course storage course = ownedCourses[courseHash];\r\n\r\n        if(course.state != State.Purchased){\r\n            revert InvalidState();\r\n        }\r\n        course.state = State.Activated;\r\n    }\r\n\r\n    function addFunds() external payable {\r\n    }\r\n\r\n    function withdraw(uint withdrawAmount) payable external {\r\n        payable(msg.sender).transfer(withdrawAmount);\r\n  }\r\n\r\n    //transfere o valor total do contrato para o dono do contrato quando o contrato for destruido\r\n\r\n    function stopContract() external onlyOwner {\r\n        isStopped = true;\r\n    }\r\n\r\n  function resumeContract() external onlyOwner {\r\n        isStopped = false;\r\n    }\r\n\r\n    //[ID do curso] ASCII -> HEX | transforma em 32 bytes\r\n    //[id do curso + msg sender] -> KECCAK -> HEX -> hash do curso\r\n\r\n    function purchaseCourse(bytes16 courseId) external payable onlyWhenNotStopped{\r\n        bytes32 courseHash = keccak256(abi.encodePacked(courseId, msg.sender));\r\n\r\n        if(hasCourseOwnership(courseHash)){\r\n            revert CourseHasOwner();\r\n        }\r\n\r\n        uint id = totalOwnedCourses++;\r\n        ownedCourseHash[id] = courseHash;\r\n        ownedCourses[courseHash] = Course({\r\n            id: id, price: msg.value, owner: msg.sender, state: State.Purchased\r\n        });\r\n    }\r\n\r\n\r\n    function transferOwnership(address newOwner) external onlyOwner {\r\n        setContractOwner(newOwner);\r\n    }\r\n\r\n    function getCourseCount() external view returns(uint) {\r\n        return totalOwnedCourses;\r\n    }\r\n\r\n    function getCourseHashAtIndex(uint index) external view returns(bytes32) {\r\n        return ownedCourseHash[index];\r\n    }\r\n\r\n    function getCourseByHash(bytes32 courseHash) external view returns(Course memory) {\r\n        return ownedCourses[courseHash];\r\n    }\r\n\r\n    function getContractOwner() public view returns(address) {\r\n        return owner;\r\n    }\r\n\r\n    function setContractOwner(address newOwner) private {\r\n        owner = payable(newOwner);\r\n    }\r\n\r\n    function isCourseCreated(bytes32 courseHash) private view returns(bool) {\r\n        return ownedCourses[courseHash].owner != 0x0000000000000000000000000000000000000000;\r\n    }\r\n\r\n    function hasCourseOwnership(bytes32 courseHash) private view returns(bool) {\r\n        return ownedCourses[courseHash].owner == msg.sender;\r\n    }\r\n}  ",
  "sourcePath": "C:\\Users\\samue\\Videos\\gnosePlace\\contracts\\Gnose.sol",
  "compiler": {
    "name": "solc",
    "version": "0.8.15+commit.e14f2714.Emscripten.clang"
  },
  "schemaVersion": "3.4.8",
  "updatedAt": "2023-02-10T14:17:32.093Z",
  "networkType": "ethereum",
  "devdoc": {
    "kind": "dev",
    "methods": {},
    "version": 1
  },
  "userdoc": {
    "errors": {
      "CourseHasOwner()": [
        {
          "notice": "O curso j possui um dono!"
        }
      ],
      "CourseIsNotCreated()": [
        {
          "notice": "O curso no foi criado!"
        }
      ],
      "InvalidState()": [
        {
          "notice": "No h um estado vlido para o curso!"
        }
      ],
      "OnlyOwner()": [
        {
          "notice": "Apenas o dono poder fazer essa operao!"
        }
      ],
      "SenderIsNotCourseOwner()": [
        {
          "notice": "O remetente no  o dono do curso!"
        }
      ]
    },
    "kind": "user",
    "methods": {},
    "version": 1
  }
}