{
  "contractName": "Gnose",
  "abi": [
    {
      "inputs": [],
      "stateMutability": "nonpayable",
      "type": "constructor"
    },
    {
      "inputs": [],
      "name": "CourseHasOwner",
      "type": "error"
    },
    {
      "inputs": [],
      "name": "CourseIsNotCreated",
      "type": "error"
    },
    {
      "inputs": [],
      "name": "InvalidState",
      "type": "error"
    },
    {
      "inputs": [],
      "name": "OnlyOwner",
      "type": "error"
    },
    {
      "inputs": [],
      "name": "SenderIsNotCourseOwner",
      "type": "error"
    },
    {
      "inputs": [],
      "name": "isStopped",
      "outputs": [
        {
          "internalType": "bool",
          "name": "",
          "type": "bool"
        }
      ],
      "stateMutability": "view",
      "type": "function",
      "constant": true
    },
    {
      "inputs": [
        {
          "internalType": "uint256",
          "name": "",
          "type": "uint256"
        }
      ],
      "name": "student",
      "outputs": [
        {
          "internalType": "address payable",
          "name": "walletAddress",
          "type": "address"
        },
        {
          "internalType": "string",
          "name": "skill",
          "type": "string"
        }
      ],
      "stateMutability": "view",
      "type": "function",
      "constant": true
    },
    {
      "stateMutability": "payable",
      "type": "receive",
      "payable": true
    },
    {
      "inputs": [
        {
          "internalType": "address payable",
          "name": "walletAddress",
          "type": "address"
        },
        {
          "internalType": "string",
          "name": "skill",
          "type": "string"
        }
      ],
      "name": "addSkill",
      "outputs": [],
      "stateMutability": "nonpayable",
      "type": "function"
    },
    {
      "inputs": [
        {
          "internalType": "address",
          "name": "walletAddress",
          "type": "address"
        }
      ],
      "name": "getIndex",
      "outputs": [
        {
          "internalType": "uint256",
          "name": "",
          "type": "uint256"
        }
      ],
      "stateMutability": "view",
      "type": "function",
      "constant": true
    },
    {
      "inputs": [],
      "name": "balanceOf",
      "outputs": [
        {
          "internalType": "uint256",
          "name": "",
          "type": "uint256"
        }
      ],
      "stateMutability": "view",
      "type": "function",
      "constant": true
    },
    {
      "inputs": [
        {
          "internalType": "bytes32",
          "name": "courseHash",
          "type": "bytes32"
        }
      ],
      "name": "activateCourse",
      "outputs": [],
      "stateMutability": "nonpayable",
      "type": "function"
    },
    {
      "inputs": [],
      "name": "addFunds",
      "outputs": [],
      "stateMutability": "payable",
      "type": "function",
      "payable": true
    },
    {
      "inputs": [
        {
          "internalType": "uint256",
          "name": "withdrawAmount",
          "type": "uint256"
        }
      ],
      "name": "withdraw",
      "outputs": [],
      "stateMutability": "payable",
      "type": "function",
      "payable": true
    },
    {
      "inputs": [],
      "name": "selfDestruct",
      "outputs": [],
      "stateMutability": "nonpayable",
      "type": "function"
    },
    {
      "inputs": [],
      "name": "stopContract",
      "outputs": [],
      "stateMutability": "nonpayable",
      "type": "function"
    },
    {
      "inputs": [],
      "name": "resumeContract",
      "outputs": [],
      "stateMutability": "nonpayable",
      "type": "function"
    },
    {
      "inputs": [
        {
          "internalType": "bytes16",
          "name": "courseId",
          "type": "bytes16"
        }
      ],
      "name": "purchaseCourse",
      "outputs": [],
      "stateMutability": "payable",
      "type": "function",
      "payable": true
    },
    {
      "inputs": [
        {
          "internalType": "address",
          "name": "newOwner",
          "type": "address"
        }
      ],
      "name": "transferOwnership",
      "outputs": [],
      "stateMutability": "nonpayable",
      "type": "function"
    },
    {
      "inputs": [],
      "name": "getCourseCount",
      "outputs": [
        {
          "internalType": "uint256",
          "name": "",
          "type": "uint256"
        }
      ],
      "stateMutability": "view",
      "type": "function",
      "constant": true
    },
    {
      "inputs": [
        {
          "internalType": "uint256",
          "name": "index",
          "type": "uint256"
        }
      ],
      "name": "getCourseHashAtIndex",
      "outputs": [
        {
          "internalType": "bytes32",
          "name": "",
          "type": "bytes32"
        }
      ],
      "stateMutability": "view",
      "type": "function",
      "constant": true
    },
    {
      "inputs": [
        {
          "internalType": "bytes32",
          "name": "courseHash",
          "type": "bytes32"
        }
      ],
      "name": "getCourseByHash",
      "outputs": [
        {
          "components": [
            {
              "internalType": "uint256",
              "name": "id",
              "type": "uint256"
            },
            {
              "internalType": "uint256",
              "name": "price",
              "type": "uint256"
            },
            {
              "internalType": "address",
              "name": "owner",
              "type": "address"
            },
            {
              "internalType": "enum Gnose.State",
              "name": "state",
              "type": "uint8"
            }
          ],
          "internalType": "struct Gnose.Course",
          "name": "",
          "type": "tuple"
        }
      ],
      "stateMutability": "view",
      "type": "function",
      "constant": true
    },
    {
      "inputs": [],
      "name": "getContractOwner",
      "outputs": [
        {
          "internalType": "address",
          "name": "",
          "type": "address"
        }
      ],
      "stateMutability": "view",
      "type": "function",
      "constant": true
    }
  ],
  "bytecode": "0x60806040526000600160006101000a81548160ff02191690831515021790555034801561002b57600080fd5b5061003b3361004060201b60201c565b610084565b80600560006101000a81548173ffffffffffffffffffffffffffffffffffffffff021916908373ffffffffffffffffffffffffffffffffffffffff16021790555050565b6118fe806100936000396000f3fe6080604052600436106101025760003560e01c8063722713f711610095578063b31610db11610064578063b31610db146102ef578063c4bc5da51461032c578063c58d550f14610343578063ebb45f4f1461035f578063f2fde38b1461038857610109565b8063722713f71461027857806396cfda06146102a35780639cb8a26a146102ce578063a26759cb146102e557610109565b80633f683b6a116100d15780633f683b6a146101a8578063442890d5146101d357806362e4e6ac146101fe5780636d11290b1461023b57610109565b806312253a6c1461010e5780632e1a7d4d1461012557806335f3423214610141578063392625721461017f57610109565b3661010957005b600080fd5b34801561011a57600080fd5b506101236103b1565b005b61013f600480360381019061013a9190610eaf565b610439565b005b34801561014d57600080fd5b5061016860048036038101906101639190610eaf565b610483565b604051610176929190610fb6565b60405180910390f35b34801561018b57600080fd5b506101a660048036038101906101a1919061101c565b61055f565b005b3480156101b457600080fd5b506101bd61066f565b6040516101ca9190611064565b60405180910390f35b3480156101df57600080fd5b506101e8610682565b6040516101f591906110a0565b60405180910390f35b34801561020a57600080fd5b506102256004803603810190610220919061101c565b6106ac565b60405161023291906111a5565b60405180910390f35b34801561024757600080fd5b50610262600480360381019061025d9190610eaf565b61077e565b60405161026f91906111cf565b60405180910390f35b34801561028457600080fd5b5061028d61079b565b60405161029a91906111f9565b60405180910390f35b3480156102af57600080fd5b506102b86107a3565b6040516102c591906111f9565b60405180910390f35b3480156102da57600080fd5b506102e36107ad565b005b6102ed61086d565b005b3480156102fb57600080fd5b5061031660048036038101906103119190611240565b61086f565b60405161032391906111f9565b60405180910390f35b34801561033857600080fd5b50610341610924565b005b61035d600480360381019061035891906112c5565b6109ad565b005b34801561036b57600080fd5b5061038660048036038101906103819190611453565b610b57565b005b34801561039457600080fd5b506103af60048036038101906103aa9190611240565b610c7c565b005b6103b9610682565b73ffffffffffffffffffffffffffffffffffffffff163373ffffffffffffffffffffffffffffffffffffffff161461041d576040517f5fc483c500000000000000000000000000000000000000000000000000000000815260040160405180910390fd5b60018060006101000a81548160ff021916908315150217905550565b3373ffffffffffffffffffffffffffffffffffffffff166108fc829081150290604051600060405180830381858888f1935050505015801561047f573d6000803e3d6000fd5b5050565b6000818154811061049357600080fd5b90600052602060002090600202016000915090508060000160009054906101000a900473ffffffffffffffffffffffffffffffffffffffff16908060010180546104dc906114de565b80601f0160208091040260200160405190810160405280929190818152602001828054610508906114de565b80156105555780601f1061052a57610100808354040283529160200191610555565b820191906000526020600020905b81548152906001019060200180831161053857829003601f168201915b5050505050905082565b600160009054906101000a900460ff161561057957600080fd5b61058281610cf4565b6105b8576040517f4db0c48300000000000000000000000000000000000000000000000000000000815260040160405180910390fd5b6000600360008381526020019081526020016000209050600060018111156105e3576105e26110d9565b5b8160020160149054906101000a900460ff166001811115610607576106066110d9565b5b1461063e576040517fbaf3f0f700000000000000000000000000000000000000000000000000000000815260040160405180910390fd5b60018160020160146101000a81548160ff02191690836001811115610666576106656110d9565b5b02179055505050565b600160009054906101000a900460ff1681565b6000600560009054906101000a900473ffffffffffffffffffffffffffffffffffffffff16905090565b6106b4610e15565b6003600083815260200190815260200160002060405180608001604052908160008201548152602001600182015481526020016002820160009054906101000a900473ffffffffffffffffffffffffffffffffffffffff1673ffffffffffffffffffffffffffffffffffffffff1673ffffffffffffffffffffffffffffffffffffffff1681526020016002820160149054906101000a900460ff166001811115610761576107606110d9565b5b6001811115610773576107726110d9565b5b815250509050919050565b600060026000838152602001908152602001600020549050919050565b600047905090565b6000600454905090565b600160009054906101000a900460ff166107c657600080fd5b6107ce610682565b73ffffffffffffffffffffffffffffffffffffffff163373ffffffffffffffffffffffffffffffffffffffff1614610832576040517f5fc483c500000000000000000000000000000000000000000000000000000000815260040160405180910390fd5b600560009054906101000a900473ffffffffffffffffffffffffffffffffffffffff1673ffffffffffffffffffffffffffffffffffffffff16ff5b565b600080600090505b600080549050811015610918578273ffffffffffffffffffffffffffffffffffffffff16600082815481106108af576108ae61150f565b5b906000526020600020906002020160000160009054906101000a900473ffffffffffffffffffffffffffffffffffffffff1673ffffffffffffffffffffffffffffffffffffffff1603610905578091505061091f565b80806109109061156d565b915050610877565b506103e790505b919050565b61092c610682565b73ffffffffffffffffffffffffffffffffffffffff163373ffffffffffffffffffffffffffffffffffffffff1614610990576040517f5fc483c500000000000000000000000000000000000000000000000000000000815260040160405180910390fd5b6000600160006101000a81548160ff021916908315150217905550565b600160009054906101000a900460ff16156109c757600080fd5b600081336040516020016109dc92919061161e565b6040516020818303038152906040528051906020012090506109fd81610d63565b15610a34576040517fb0fc2d9700000000000000000000000000000000000000000000000000000000815260040160405180910390fd5b600060046000815480929190610a499061156d565b91905055905081600260008381526020019081526020016000208190555060405180608001604052808281526020013481526020013373ffffffffffffffffffffffffffffffffffffffff16815260200160006001811115610aae57610aad6110d9565b5b81525060036000848152602001908152602001600020600082015181600001556020820151816001015560408201518160020160006101000a81548173ffffffffffffffffffffffffffffffffffffffff021916908373ffffffffffffffffffffffffffffffffffffffff16021790555060608201518160020160146101000a81548160ff02191690836001811115610b4a57610b496110d9565b5b0217905550905050505050565b610b5f610682565b73ffffffffffffffffffffffffffffffffffffffff163373ffffffffffffffffffffffffffffffffffffffff1614610bc3576040517f5fc483c500000000000000000000000000000000000000000000000000000000815260040160405180910390fd5b600060405180604001604052808473ffffffffffffffffffffffffffffffffffffffff16815260200183815250908060018154018082558091505060019003906000526020600020906002020160009091909190915060008201518160000160006101000a81548173ffffffffffffffffffffffffffffffffffffffff021916908373ffffffffffffffffffffffffffffffffffffffff1602179055506020820151816001019081610c7591906117f6565b5050505050565b610c84610682565b73ffffffffffffffffffffffffffffffffffffffff163373ffffffffffffffffffffffffffffffffffffffff1614610ce8576040517f5fc483c500000000000000000000000000000000000000000000000000000000815260040160405180910390fd5b610cf181610dd1565b50565b60008073ffffffffffffffffffffffffffffffffffffffff166003600084815260200190815260200160002060020160009054906101000a900473ffffffffffffffffffffffffffffffffffffffff1673ffffffffffffffffffffffffffffffffffffffff1614159050919050565b60003373ffffffffffffffffffffffffffffffffffffffff166003600084815260200190815260200160002060020160009054906101000a900473ffffffffffffffffffffffffffffffffffffffff1673ffffffffffffffffffffffffffffffffffffffff16149050919050565b80600560006101000a81548173ffffffffffffffffffffffffffffffffffffffff021916908373ffffffffffffffffffffffffffffffffffffffff16021790555050565b60405180608001604052806000815260200160008152602001600073ffffffffffffffffffffffffffffffffffffffff16815260200160006001811115610e5f57610e5e6110d9565b5b81525090565b6000604051905090565b600080fd5b600080fd5b6000819050919050565b610e8c81610e79565b8114610e9757600080fd5b50565b600081359050610ea981610e83565b92915050565b600060208284031215610ec557610ec4610e6f565b5b6000610ed384828501610e9a565b91505092915050565b600073ffffffffffffffffffffffffffffffffffffffff82169050919050565b6000610f0782610edc565b9050919050565b610f1781610efc565b82525050565b600081519050919050565b600082825260208201905092915050565b60005b83811015610f57578082015181840152602081019050610f3c565b83811115610f66576000848401525b50505050565b6000601f19601f8301169050919050565b6000610f8882610f1d565b610f928185610f28565b9350610fa2818560208601610f39565b610fab81610f6c565b840191505092915050565b6000604082019050610fcb6000830185610f0e565b8181036020830152610fdd8184610f7d565b90509392505050565b6000819050919050565b610ff981610fe6565b811461100457600080fd5b50565b60008135905061101681610ff0565b92915050565b60006020828403121561103257611031610e6f565b5b600061104084828501611007565b91505092915050565b60008115159050919050565b61105e81611049565b82525050565b60006020820190506110796000830184611055565b92915050565b600061108a82610edc565b9050919050565b61109a8161107f565b82525050565b60006020820190506110b56000830184611091565b92915050565b6110c481610e79565b82525050565b6110d38161107f565b82525050565b7f4e487b7100000000000000000000000000000000000000000000000000000000600052602160045260246000fd5b60028110611119576111186110d9565b5b50565b600081905061112a82611108565b919050565b600061113a8261111c565b9050919050565b61114a8161112f565b82525050565b60808201600082015161116660008501826110bb565b50602082015161117960208501826110bb565b50604082015161118c60408501826110ca565b50606082015161119f6060850182611141565b50505050565b60006080820190506111ba6000830184611150565b92915050565b6111c981610fe6565b82525050565b60006020820190506111e460008301846111c0565b92915050565b6111f381610e79565b82525050565b600060208201905061120e60008301846111ea565b92915050565b61121d8161107f565b811461122857600080fd5b50565b60008135905061123a81611214565b92915050565b60006020828403121561125657611255610e6f565b5b60006112648482850161122b565b91505092915050565b60007fffffffffffffffffffffffffffffffff0000000000000000000000000000000082169050919050565b6112a28161126d565b81146112ad57600080fd5b50565b6000813590506112bf81611299565b92915050565b6000602082840312156112db576112da610e6f565b5b60006112e9848285016112b0565b91505092915050565b6112fb81610efc565b811461130657600080fd5b50565b600081359050611318816112f2565b92915050565b600080fd5b600080fd5b7f4e487b7100000000000000000000000000000000000000000000000000000000600052604160045260246000fd5b61136082610f6c565b810181811067ffffffffffffffff8211171561137f5761137e611328565b5b80604052505050565b6000611392610e65565b905061139e8282611357565b919050565b600067ffffffffffffffff8211156113be576113bd611328565b5b6113c782610f6c565b9050602081019050919050565b82818337600083830152505050565b60006113f66113f1846113a3565b611388565b90508281526020810184848401111561141257611411611323565b5b61141d8482856113d4565b509392505050565b600082601f83011261143a5761143961131e565b5b813561144a8482602086016113e3565b91505092915050565b6000806040838503121561146a57611469610e6f565b5b600061147885828601611309565b925050602083013567ffffffffffffffff81111561149957611498610e74565b5b6114a585828601611425565b9150509250929050565b7f4e487b7100000000000000000000000000000000000000000000000000000000600052602260045260246000fd5b600060028204905060018216806114f657607f821691505b602082108103611509576115086114af565b5b50919050565b7f4e487b7100000000000000000000000000000000000000000000000000000000600052603260045260246000fd5b7f4e487b7100000000000000000000000000000000000000000000000000000000600052601160045260246000fd5b600061157882610e79565b91507fffffffffffffffffffffffffffffffffffffffffffffffffffffffffffffffff82036115aa576115a961153e565b5b600182019050919050565b6000819050919050565b6115d06115cb8261126d565b6115b5565b82525050565b60008160601b9050919050565b60006115ee826115d6565b9050919050565b6000611600826115e3565b9050919050565b6116186116138261107f565b6115f5565b82525050565b600061162a82856115bf565b60108201915061163a8284611607565b6014820191508190509392505050565b60008190508160005260206000209050919050565b60006020601f8301049050919050565b600082821b905092915050565b6000600883026116ac7fffffffffffffffffffffffffffffffffffffffffffffffffffffffffffffffff8261166f565b6116b6868361166f565b95508019841693508086168417925050509392505050565b6000819050919050565b60006116f36116ee6116e984610e79565b6116ce565b610e79565b9050919050565b6000819050919050565b61170d836116d8565b611721611719826116fa565b84845461167c565b825550505050565b600090565b611736611729565b611741818484611704565b505050565b5b818110156117655761175a60008261172e565b600181019050611747565b5050565b601f8211156117aa5761177b8161164a565b6117848461165f565b81016020851015611793578190505b6117a761179f8561165f565b830182611746565b50505b505050565b600082821c905092915050565b60006117cd600019846008026117af565b1980831691505092915050565b60006117e683836117bc565b9150826002028217905092915050565b6117ff82610f1d565b67ffffffffffffffff81111561181857611817611328565b5b61182282546114de565b61182d828285611769565b600060209050601f831160018114611860576000841561184e578287015190505b61185885826117da565b8655506118c0565b601f19841661186e8661164a565b60005b8281101561189657848901518255600182019150602085019450602081019050611871565b868310156118b357848901516118af601f8916826117bc565b8355505b6001600288020188555050505b50505050505056fea2646970667358221220ac7ac5b69c8d8959b2cf18f40650232a08be44e4e0f0a00d6a98845271a36e6064736f6c634300080f0033",
  "immutableReferences": {},
  "source": "// SPDX-License-Identifier: MIT\r\npragma solidity >=0.4.22 <0.9.0;\r\n\r\n\r\n//dois estados dos cursos/aulas\r\n//so representados por nmeros a partir do 0\r\ncontract Gnose {\r\n    enum State {Purchased, Activated}\r\n\r\n    struct Course{\r\n        uint id; //32\r\n        uint price; //32\r\n        address owner; //20\r\n        State state; //1\r\n    }\r\n\r\n    struct Student {\r\n        address payable walletAddress;\r\n        string skill;\r\n    }\r\n\r\n    Student[] public student;\r\n\r\n    function addSkill(address payable walletAddress, string memory skill) public onlyOwner {\r\n        student.push(Student(walletAddress, skill));\r\n    }\r\n\r\n    function getIndex(address walletAddress) view public returns(uint) {\r\n        for(uint i = 0; i < student.length; i++) {\r\n            if (student[i].walletAddress == walletAddress) {\r\n                return i;\r\n            }\r\n        }\r\n        return 999;\r\n    }\r\n\r\n\r\n    function balanceOf() public view returns(uint) {\r\n        return address(this).balance;\r\n    }\r\n\r\n\r\n    bool public isStopped = false;\r\n\r\n    //mapping do courseId para o courseHash\r\n    mapping(uint => bytes32) private ownedCourseHash;\r\n\r\n    //mapping do courseHash para os dados do Course\r\n    mapping(bytes32 => Course) private ownedCourses;\r\n\r\n    //nmero de todos os cursos + id dos cursos\r\n    uint private totalOwnedCourses;\r\n\r\n    //dono do contrato\r\n    address payable private owner; \r\n\r\n    constructor(){\r\n        setContractOwner(msg.sender);\r\n    }\r\n\r\n    ///No h um estado vlido para o curso!\r\n    error InvalidState();\r\n\r\n    ///O curso no foi criado!\r\n    error CourseIsNotCreated();\r\n\r\n    /// O remetente no  o dono do curso!\r\n    error SenderIsNotCourseOwner();\r\n\r\n    ///O curso j possui um dono!\r\n    error CourseHasOwner();\r\n\r\n    ///Apenas o dono poder fazer essa operao!\r\n    error OnlyOwner();\r\n\r\n\r\n    modifier onlyOwner() {\r\n        if (msg.sender != getContractOwner()) {\r\n        revert OnlyOwner();\r\n        }\r\n        _;\r\n    }\r\n\r\n    modifier onlyWhenNotStopped {\r\n        require(!isStopped);\r\n        _;\r\n    }\r\n\r\n    modifier onlyWhenStopped {\r\n        require(isStopped);\r\n        _;\r\n    }\r\n\r\n    receive() external payable {}\r\n\r\n    function activateCourse(bytes32 courseHash) external onlyWhenNotStopped{\r\n        //recebe o hash do curso\r\n        //se o curso no for criado, ir reverter o contrato\r\n        if(!isCourseCreated(courseHash)){\r\n            revert CourseIsNotCreated();\r\n        }\r\n\r\n        Course storage course = ownedCourses[courseHash];\r\n\r\n        if(course.state != State.Purchased){\r\n            revert InvalidState();\r\n        }\r\n        course.state = State.Activated;\r\n    }\r\n\r\n    function addFunds() external payable {\r\n    }\r\n\r\n    // function withdraw(uint amount) external payable{\r\n        \r\n    //     (bool success, ) = owner.call{value: amount}(\"\");\r\n    //     require(success, \"Falha na transferencia\");\r\n    // }\r\n\r\n    function withdraw(uint withdrawAmount) payable external {\r\n        payable(msg.sender).transfer(withdrawAmount);\r\n  }\r\n\r\n    //transfere o valor total do contrato para o dono do contrato quando o contrato for destruido\r\n    function selfDestruct() external onlyWhenStopped onlyOwner {\r\n        selfdestruct(owner);\r\n    }\r\n\r\n    function stopContract() external onlyOwner {\r\n        isStopped = true;\r\n    }\r\n\r\n  function resumeContract() external onlyOwner {\r\n        isStopped = false;\r\n    }\r\n\r\n    //[ID do curso] ASCII -> HEX | transforma em 32 bytes\r\n    //[id do curso + msg sender] -> KECCAK -> HEX -> hash do curso\r\n\r\n    function purchaseCourse(bytes16 courseId) external payable onlyWhenNotStopped{\r\n        bytes32 courseHash = keccak256(abi.encodePacked(courseId, msg.sender));\r\n\r\n        if(hasCourseOwnership(courseHash)){\r\n            revert CourseHasOwner();\r\n        }\r\n\r\n        uint id = totalOwnedCourses++;\r\n        ownedCourseHash[id] = courseHash;\r\n        ownedCourses[courseHash] = Course({\r\n            id: id, price: msg.value, owner: msg.sender, state: State.Purchased\r\n        });\r\n    }\r\n\r\n\r\n    function transferOwnership(address newOwner) external onlyOwner {\r\n        setContractOwner(newOwner);\r\n    }\r\n\r\n    function getCourseCount() external view returns(uint) {\r\n        return totalOwnedCourses;\r\n    }\r\n\r\n    function getCourseHashAtIndex(uint index) external view returns(bytes32) {\r\n        return ownedCourseHash[index];\r\n    }\r\n\r\n    function getCourseByHash(bytes32 courseHash) external view returns(Course memory) {\r\n        return ownedCourses[courseHash];\r\n    }\r\n\r\n    function getContractOwner() public view returns(address) {\r\n        return owner;\r\n    }\r\n\r\n    function setContractOwner(address newOwner) private {\r\n        owner = payable(newOwner);\r\n    }\r\n\r\n    function isCourseCreated(bytes32 courseHash) private view returns(bool) {\r\n        return ownedCourses[courseHash].owner != 0x0000000000000000000000000000000000000000;\r\n    }\r\n\r\n    function hasCourseOwnership(bytes32 courseHash) private view returns(bool) {\r\n        return ownedCourses[courseHash].owner == msg.sender;\r\n    }\r\n}  ",
  "sourcePath": "C:\\Users\\samue\\Videos\\gnosePlace\\contracts\\Gnose.sol",
  "compiler": {
    "name": "solc",
    "version": "0.8.15+commit.e14f2714.Emscripten.clang"
  },
  "schemaVersion": "3.4.8",
  "updatedAt": "2023-01-29T19:44:17.162Z",
  "networkType": "ethereum",
  "devdoc": {
    "kind": "dev",
    "methods": {},
    "version": 1
  },
  "userdoc": {
    "errors": {
      "CourseHasOwner()": [
        {
          "notice": "O curso j possui um dono!"
        }
      ],
      "CourseIsNotCreated()": [
        {
          "notice": "O curso no foi criado!"
        }
      ],
      "InvalidState()": [
        {
          "notice": "No h um estado vlido para o curso!"
        }
      ],
      "OnlyOwner()": [
        {
          "notice": "Apenas o dono poder fazer essa operao!"
        }
      ],
      "SenderIsNotCourseOwner()": [
        {
          "notice": "O remetente no  o dono do curso!"
        }
      ]
    },
    "kind": "user",
    "methods": {},
    "version": 1
  }
}