{
  "contractName": "Gnose",
  "abi": [
    {
      "inputs": [],
      "stateMutability": "nonpayable",
      "type": "constructor"
    },
    {
      "inputs": [],
      "name": "CourseHasOwner",
      "type": "error"
    },
    {
      "inputs": [],
      "name": "CourseIsNotCreated",
      "type": "error"
    },
    {
      "inputs": [],
      "name": "InvalidState",
      "type": "error"
    },
    {
      "inputs": [],
      "name": "OnlyOwner",
      "type": "error"
    },
    {
      "inputs": [],
      "name": "SenderIsNotCourseOwner",
      "type": "error"
    },
    {
      "inputs": [],
      "name": "isStopped",
      "outputs": [
        {
          "internalType": "bool",
          "name": "",
          "type": "bool"
        }
      ],
      "stateMutability": "view",
      "type": "function",
      "constant": true
    },
    {
      "stateMutability": "payable",
      "type": "receive",
      "payable": true
    },
    {
      "inputs": [
        {
          "internalType": "bytes32",
          "name": "courseHash",
          "type": "bytes32"
        }
      ],
      "name": "activateCourse",
      "outputs": [],
      "stateMutability": "nonpayable",
      "type": "function"
    },
    {
      "inputs": [
        {
          "internalType": "bytes32",
          "name": "courseHash",
          "type": "bytes32"
        }
      ],
      "name": "deactivateCourse",
      "outputs": [],
      "stateMutability": "nonpayable",
      "type": "function"
    },
    {
      "inputs": [],
      "name": "addFunds",
      "outputs": [],
      "stateMutability": "payable",
      "type": "function",
      "payable": true
    },
    {
      "inputs": [
        {
          "internalType": "uint256",
          "name": "withdrawAmount",
          "type": "uint256"
        }
      ],
      "name": "withdraw",
      "outputs": [],
      "stateMutability": "payable",
      "type": "function",
      "payable": true
    },
    {
      "inputs": [],
      "name": "emergencyWithdraw",
      "outputs": [],
      "stateMutability": "nonpayable",
      "type": "function"
    },
    {
      "inputs": [],
      "name": "selfDestruct",
      "outputs": [],
      "stateMutability": "nonpayable",
      "type": "function"
    },
    {
      "inputs": [],
      "name": "stopContract",
      "outputs": [],
      "stateMutability": "nonpayable",
      "type": "function"
    },
    {
      "inputs": [],
      "name": "resumeContract",
      "outputs": [],
      "stateMutability": "nonpayable",
      "type": "function"
    },
    {
      "inputs": [
        {
          "internalType": "bytes16",
          "name": "courseId",
          "type": "bytes16"
        },
        {
          "internalType": "bytes32",
          "name": "proof",
          "type": "bytes32"
        }
      ],
      "name": "purchaseCourse",
      "outputs": [],
      "stateMutability": "payable",
      "type": "function",
      "payable": true
    },
    {
      "inputs": [
        {
          "internalType": "address",
          "name": "newOwner",
          "type": "address"
        }
      ],
      "name": "transferOwnership",
      "outputs": [],
      "stateMutability": "nonpayable",
      "type": "function"
    },
    {
      "inputs": [],
      "name": "getCourseCount",
      "outputs": [
        {
          "internalType": "uint256",
          "name": "",
          "type": "uint256"
        }
      ],
      "stateMutability": "view",
      "type": "function",
      "constant": true
    },
    {
      "inputs": [
        {
          "internalType": "uint256",
          "name": "index",
          "type": "uint256"
        }
      ],
      "name": "getCourseHashAtIndex",
      "outputs": [
        {
          "internalType": "bytes32",
          "name": "",
          "type": "bytes32"
        }
      ],
      "stateMutability": "view",
      "type": "function",
      "constant": true
    },
    {
      "inputs": [
        {
          "internalType": "bytes32",
          "name": "courseHash",
          "type": "bytes32"
        }
      ],
      "name": "getCourseByHash",
      "outputs": [
        {
          "components": [
            {
              "internalType": "uint256",
              "name": "id",
              "type": "uint256"
            },
            {
              "internalType": "uint256",
              "name": "price",
              "type": "uint256"
            },
            {
              "internalType": "bytes32",
              "name": "proof",
              "type": "bytes32"
            },
            {
              "internalType": "address",
              "name": "owner",
              "type": "address"
            },
            {
              "internalType": "enum Gnose.State",
              "name": "state",
              "type": "uint8"
            }
          ],
          "internalType": "struct Gnose.Course",
          "name": "",
          "type": "tuple"
        }
      ],
      "stateMutability": "view",
      "type": "function",
      "constant": true
    },
    {
      "inputs": [],
      "name": "getContractOwner",
      "outputs": [
        {
          "internalType": "address",
          "name": "",
          "type": "address"
        }
      ],
      "stateMutability": "view",
      "type": "function",
      "constant": true
    }
  ],
  "bytecode": "0x608060405260008060006101000a81548160ff02191690831515021790555034801561002a57600080fd5b5061003a3361003f60201b60201c565b610083565b80600460006101000a81548173ffffffffffffffffffffffffffffffffffffffff021916908373ffffffffffffffffffffffffffffffffffffffff16021790555050565b611499806100926000396000f3fe6080604052600436106100ec5760003560e01c8063935d7e6d1161008a578063c4bc5da511610059578063c4bc5da514610299578063d76821cb146102b0578063db2e21bc146102cc578063f2fde38b146102e3576100f3565b8063935d7e6d1461022457806396cfda061461024d5780639cb8a26a14610278578063a26759cb1461028f576100f3565b80633f683b6a116100c65780633f683b6a14610154578063442890d51461017f57806362e4e6ac146101aa5780636d11290b146101e7576100f3565b806312253a6c146100f85780632e1a7d4d1461010f578063392625721461012b576100f3565b366100f357005b600080fd5b34801561010457600080fd5b5061010d61030c565b005b61012960048036038101906101249190610e9a565b610394565b005b34801561013757600080fd5b50610152600480360381019061014d9190610efd565b6103de565b005b34801561016057600080fd5b506101696104ec565b6040516101769190610f45565b60405180910390f35b34801561018b57600080fd5b506101946104fd565b6040516101a19190610fa1565b60405180910390f35b3480156101b657600080fd5b506101d160048036038101906101cc9190610efd565b610527565b6040516101de91906110c8565b60405180910390f35b3480156101f357600080fd5b5061020e60048036038101906102099190610e9a565b610603565b60405161021b91906110f2565b60405180910390f35b34801561023057600080fd5b5061024b60048036038101906102469190610efd565b610620565b005b34801561025957600080fd5b5061026261080d565b60405161026f919061111c565b60405180910390f35b34801561028457600080fd5b5061028d610817565b005b6102976108d5565b005b3480156102a557600080fd5b506102ae6108d7565b005b6102ca60048036038101906102c5919061118f565b61095f565b005b3480156102d857600080fd5b506102e1610b18565b005b3480156102ef57600080fd5b5061030a600480360381019061030591906111fb565b610c6c565b005b6103146104fd565b73ffffffffffffffffffffffffffffffffffffffff163373ffffffffffffffffffffffffffffffffffffffff1614610378576040517f5fc483c500000000000000000000000000000000000000000000000000000000815260040160405180910390fd5b60016000806101000a81548160ff021916908315150217905550565b3373ffffffffffffffffffffffffffffffffffffffff166108fc829081150290604051600060405180830381858888f193505050501580156103da573d6000803e3d6000fd5b5050565b60008054906101000a900460ff16156103f657600080fd5b6103ff81610ce4565b610435576040517f4db0c48300000000000000000000000000000000000000000000000000000000815260040160405180910390fd5b6000600260008381526020019081526020016000209050600060028111156104605761045f610fe9565b5b8160030160149054906101000a900460ff16600281111561048457610483610fe9565b5b146104bb576040517fbaf3f0f700000000000000000000000000000000000000000000000000000000815260040160405180910390fd5b60018160030160146101000a81548160ff021916908360028111156104e3576104e2610fe9565b5b02179055505050565b60008054906101000a900460ff1681565b6000600460009054906101000a900473ffffffffffffffffffffffffffffffffffffffff16905090565b61052f610e05565b600260008381526020019081526020016000206040518060a00160405290816000820154815260200160018201548152602001600282015481526020016003820160009054906101000a900473ffffffffffffffffffffffffffffffffffffffff1673ffffffffffffffffffffffffffffffffffffffff1673ffffffffffffffffffffffffffffffffffffffff1681526020016003820160149054906101000a900460ff1660028111156105e6576105e5610fe9565b5b60028111156105f8576105f7610fe9565b5b815250509050919050565b600060016000838152602001908152602001600020549050919050565b60008054906101000a900460ff161561063857600080fd5b61064181610ce4565b610677576040517f4db0c48300000000000000000000000000000000000000000000000000000000815260040160405180910390fd5b6000600260008381526020019081526020016000209050600060028111156106a2576106a1610fe9565b5b8160030160149054906101000a900460ff1660028111156106c6576106c5610fe9565b5b146106fd576040517fbaf3f0f700000000000000000000000000000000000000000000000000000000815260040160405180910390fd5b60008160030160009054906101000a900473ffffffffffffffffffffffffffffffffffffffff1673ffffffffffffffffffffffffffffffffffffffff16826001015460405161074b90611259565b60006040518083038185875af1925050503d8060008114610788576040519150601f19603f3d011682016040523d82523d6000602084013e61078d565b606091505b50509050806107d1576040517f08c379a00000000000000000000000000000000000000000000000000000000081526004016107c8906112cb565b60405180910390fd5b60028260030160146101000a81548160ff021916908360028111156107f9576107f8610fe9565b5b021790555060008260010181905550505050565b6000600354905090565b60008054906101000a900460ff1661082e57600080fd5b6108366104fd565b73ffffffffffffffffffffffffffffffffffffffff163373ffffffffffffffffffffffffffffffffffffffff161461089a576040517f5fc483c500000000000000000000000000000000000000000000000000000000815260040160405180910390fd5b600460009054906101000a900473ffffffffffffffffffffffffffffffffffffffff1673ffffffffffffffffffffffffffffffffffffffff16ff5b565b6108df6104fd565b73ffffffffffffffffffffffffffffffffffffffff163373ffffffffffffffffffffffffffffffffffffffff1614610943576040517f5fc483c500000000000000000000000000000000000000000000000000000000815260040160405180910390fd5b60008060006101000a81548160ff021916908315150217905550565b60008054906101000a900460ff161561097757600080fd5b6000823360405160200161098c929190611354565b6040516020818303038152906040528051906020012090506109ad81610d53565b156109e4576040517fb0fc2d9700000000000000000000000000000000000000000000000000000000815260040160405180910390fd5b6000600360008154809291906109f9906113af565b9190505590508160016000838152602001908152602001600020819055506040518060a001604052808281526020013481526020018481526020013373ffffffffffffffffffffffffffffffffffffffff16815260200160006002811115610a6457610a63610fe9565b5b8152506002600084815260200190815260200160002060008201518160000155602082015181600101556040820151816002015560608201518160030160006101000a81548173ffffffffffffffffffffffffffffffffffffffff021916908373ffffffffffffffffffffffffffffffffffffffff16021790555060808201518160030160146101000a81548160ff02191690836002811115610b0a57610b09610fe9565b5b021790555090505050505050565b60008054906101000a900460ff16610b2f57600080fd5b610b376104fd565b73ffffffffffffffffffffffffffffffffffffffff163373ffffffffffffffffffffffffffffffffffffffff1614610b9b576040517f5fc483c500000000000000000000000000000000000000000000000000000000815260040160405180910390fd5b6000600460009054906101000a900473ffffffffffffffffffffffffffffffffffffffff1673ffffffffffffffffffffffffffffffffffffffff1647604051610be390611259565b60006040518083038185875af1925050503d8060008114610c20576040519150601f19603f3d011682016040523d82523d6000602084013e610c25565b606091505b5050905080610c69576040517f08c379a0000000000000000000000000000000000000000000000000000000008152600401610c6090611443565b60405180910390fd5b50565b610c746104fd565b73ffffffffffffffffffffffffffffffffffffffff163373ffffffffffffffffffffffffffffffffffffffff1614610cd8576040517f5fc483c500000000000000000000000000000000000000000000000000000000815260040160405180910390fd5b610ce181610dc1565b50565b60008073ffffffffffffffffffffffffffffffffffffffff166002600084815260200190815260200160002060030160009054906101000a900473ffffffffffffffffffffffffffffffffffffffff1673ffffffffffffffffffffffffffffffffffffffff1614159050919050565b60003373ffffffffffffffffffffffffffffffffffffffff166002600084815260200190815260200160002060030160009054906101000a900473ffffffffffffffffffffffffffffffffffffffff1673ffffffffffffffffffffffffffffffffffffffff16149050919050565b80600460006101000a81548173ffffffffffffffffffffffffffffffffffffffff021916908373ffffffffffffffffffffffffffffffffffffffff16021790555050565b6040518060a00160405280600081526020016000815260200160008019168152602001600073ffffffffffffffffffffffffffffffffffffffff16815260200160006002811115610e5957610e58610fe9565b5b81525090565b600080fd5b6000819050919050565b610e7781610e64565b8114610e8257600080fd5b50565b600081359050610e9481610e6e565b92915050565b600060208284031215610eb057610eaf610e5f565b5b6000610ebe84828501610e85565b91505092915050565b6000819050919050565b610eda81610ec7565b8114610ee557600080fd5b50565b600081359050610ef781610ed1565b92915050565b600060208284031215610f1357610f12610e5f565b5b6000610f2184828501610ee8565b91505092915050565b60008115159050919050565b610f3f81610f2a565b82525050565b6000602082019050610f5a6000830184610f36565b92915050565b600073ffffffffffffffffffffffffffffffffffffffff82169050919050565b6000610f8b82610f60565b9050919050565b610f9b81610f80565b82525050565b6000602082019050610fb66000830184610f92565b92915050565b610fc581610e64565b82525050565b610fd481610ec7565b82525050565b610fe381610f80565b82525050565b7f4e487b7100000000000000000000000000000000000000000000000000000000600052602160045260246000fd5b6003811061102957611028610fe9565b5b50565b600081905061103a82611018565b919050565b600061104a8261102c565b9050919050565b61105a8161103f565b82525050565b60a0820160008201516110766000850182610fbc565b5060208201516110896020850182610fbc565b50604082015161109c6040850182610fcb565b5060608201516110af6060850182610fda565b5060808201516110c26080850182611051565b50505050565b600060a0820190506110dd6000830184611060565b92915050565b6110ec81610ec7565b82525050565b600060208201905061110760008301846110e3565b92915050565b61111681610e64565b82525050565b6000602082019050611131600083018461110d565b92915050565b60007fffffffffffffffffffffffffffffffff0000000000000000000000000000000082169050919050565b61116c81611137565b811461117757600080fd5b50565b60008135905061118981611163565b92915050565b600080604083850312156111a6576111a5610e5f565b5b60006111b48582860161117a565b92505060206111c585828601610ee8565b9150509250929050565b6111d881610f80565b81146111e357600080fd5b50565b6000813590506111f5816111cf565b92915050565b60006020828403121561121157611210610e5f565b5b600061121f848285016111e6565b91505092915050565b600081905092915050565b50565b6000611243600083611228565b915061124e82611233565b600082019050919050565b600061126482611236565b9150819050919050565b600082825260208201905092915050565b7f41207472616e73666572656e6369612066616c686f7521000000000000000000600082015250565b60006112b560178361126e565b91506112c08261127f565b602082019050919050565b600060208201905081810360008301526112e4816112a8565b9050919050565b6000819050919050565b61130661130182611137565b6112eb565b82525050565b60008160601b9050919050565b60006113248261130c565b9050919050565b600061133682611319565b9050919050565b61134e61134982610f80565b61132b565b82525050565b600061136082856112f5565b601082019150611370828461133d565b6014820191508190509392505050565b7f4e487b7100000000000000000000000000000000000000000000000000000000600052601160045260246000fd5b60006113ba82610e64565b91507fffffffffffffffffffffffffffffffffffffffffffffffffffffffffffffffff82036113ec576113eb611380565b5b600182019050919050565b7f5472616e73666572656e6369612066616c686f752e0000000000000000000000600082015250565b600061142d60158361126e565b9150611438826113f7565b602082019050919050565b6000602082019050818103600083015261145c81611420565b905091905056fea264697066735822122088ee401576609f05e353d9b1253df492ed9bfffb4c32a285d097a59e8c80e6ef64736f6c634300080f0033",
  "immutableReferences": {},
  "source": "// SPDX-License-Identifier: MIT\r\npragma solidity >=0.4.22 <0.9.0;\r\n\r\n\r\n//trs estados dos cursos/aulas/matrias\r\n//so representados por nmeros a partir do 0\r\ncontract Gnose {\r\n    enum State {Purchased, Activated, Deactivated}\r\n\r\n    struct Course{\r\n        uint id; //32\r\n        uint price; //32\r\n        bytes32 proof; //32\r\n        address owner; //20\r\n        State state; //1\r\n    }\r\n\r\n    bool public isStopped = false;\r\n     \r\n\r\n    //mapping do courseId para o courseHash\r\n    mapping(uint => bytes32) private ownedCourseHash;\r\n\r\n    //mapping do courseHash para os dados do Course\r\n    mapping(bytes32 => Course) private ownedCourses;\r\n\r\n\r\n    //nmero de todos os cursos + id dos cursos\r\n    uint private totalOwnedCourses;\r\n\r\n    //professores - instrutores\r\n    address payable private owner; \r\n\r\n    constructor(){\r\n        setContractOwner(msg.sender);\r\n    }\r\n\r\n    ///No h um estado vlido para o curso!\r\n    error InvalidState();\r\n\r\n    ///O curso no foi criado!\r\n    error CourseIsNotCreated();\r\n\r\n    /// O remetente no  o dono do curso!\r\n    error SenderIsNotCourseOwner();\r\n\r\n    ///O curso j possui um dono!\r\n    error CourseHasOwner();\r\n\r\n    ///Apenas o dono poder fazer essa operao!\r\n    error OnlyOwner();\r\n\r\n\r\n    //apenas o dono do contrato pode alterar o acesso de outro dono do curso\r\n    modifier onlyOwner() {\r\n        if (msg.sender != getContractOwner()) {\r\n        revert OnlyOwner();\r\n        }\r\n        _;\r\n    }\r\n\r\n    modifier onlyWhenNotStopped {\r\n        require(!isStopped);\r\n        _;\r\n    }\r\n\r\n    modifier onlyWhenStopped {\r\n        require(isStopped);\r\n        _;\r\n    }\r\n\r\n    receive() external payable {}\r\n\r\n    // function repurchaseCourse(bytes32 courseHash) external payable onlyWhenNotStopped{\r\n    //     if (!isCourseCreated(courseHash)) {\r\n    //         revert CourseIsNotCreated();\r\n    //     }\r\n\r\n    //     if(!hasCourseOwnership(courseHash)) {\r\n    //         revert SenderIsNotCourseOwner();\r\n    //     }\r\n\r\n    // Course storage course = ownedCourses[courseHash];\r\n\r\n    //     if (course.state != State.Deactivated) {\r\n    //     revert InvalidState();\r\n    //     }\r\n\r\n    //     course.state = State.Purchased;\r\n    //     course.price = msg.value;\r\n    // }\r\n\r\n\r\n    function activateCourse(bytes32 courseHash) external onlyWhenNotStopped{\r\n        //recebe o hash do curso\r\n        //tal request foi enviado pelo dono da transao\r\n        //se o curso no for criado, ir reverter o contrato\r\n        if(!isCourseCreated(courseHash)){\r\n            revert CourseIsNotCreated();\r\n        }\r\n\r\n        Course storage course = ownedCourses[courseHash];\r\n\r\n        if(course.state != State.Purchased){\r\n            revert InvalidState();\r\n        }\r\n        course.state = State.Activated;\r\n    }\r\n\r\n\r\n    function deactivateCourse(bytes32 courseHash) external onlyWhenNotStopped{\r\n        if (!isCourseCreated(courseHash)) {\r\n            revert CourseIsNotCreated();\r\n        }\r\n\r\n        Course storage course = ownedCourses[courseHash];\r\n\r\n        if (course.state != State.Purchased) {\r\n            revert InvalidState();\r\n        }\r\n\r\n        (bool success, ) = course.owner.call{value: course.price}(\"\");\r\n            require(success, \"A transferencia falhou!\");\r\n\r\n        course.state = State.Deactivated;\r\n        course.price = 0;\r\n    }\r\n\r\n    function addFunds() external payable {\r\n    }\r\n\r\n    // function withdraw(uint amount) external payable{\r\n        \r\n    //     (bool success, ) = owner.call{value: amount}(\"\");\r\n    //     require(success, \"Falha na transferencia\");\r\n    // }\r\n\r\n    function withdraw(uint withdrawAmount) payable external {\r\n        payable(msg.sender).transfer(withdrawAmount);\r\n  }\r\n\r\n    //saca o valor total do contrato para o dono do contrato em caso de falhas ou erros\r\n    function emergencyWithdraw() external onlyWhenStopped onlyOwner{\r\n        (bool success, ) = owner.call{value: address(this).balance}(\"\");\r\n        require(success, \"Transferencia falhou.\");\r\n    }\r\n\r\n    //transfere o valor total do contrato para o dono do contrato quando o contrato for destruido\r\n    function selfDestruct() external onlyWhenStopped onlyOwner {\r\n        selfdestruct(owner);\r\n    }\r\n\r\n    function stopContract() external onlyOwner {\r\n        isStopped = true;\r\n    }\r\n\r\n  function resumeContract() external onlyOwner {\r\n        isStopped = false;\r\n    }\r\n\r\n//[ID do curso] ASCII -> DEC | transforma em 16 bytes\r\n//[id do curso + msg sender] -> KECCAK -> HEX -> hash do curso\r\n\r\n    function purchaseCourse(bytes16 courseId, bytes32 proof) external payable onlyWhenNotStopped{\r\n        bytes32 courseHash = keccak256(abi.encodePacked(courseId, msg.sender));\r\n\r\n        if(hasCourseOwnership(courseHash)){\r\n            revert CourseHasOwner();\r\n        }\r\n\r\n        uint id = totalOwnedCourses++;\r\n        ownedCourseHash[id] = courseHash;\r\n        ownedCourses[courseHash] = Course({\r\n            id: id, price: msg.value, proof: proof, owner: msg.sender, state: State.Purchased\r\n        });\r\n    }\r\n\r\n\r\n    function transferOwnership(address newOwner) external onlyOwner {\r\n        setContractOwner(newOwner);\r\n    }\r\n\r\n    function getCourseCount() external view returns(uint) {\r\n        return totalOwnedCourses;\r\n    }\r\n\r\n    function getCourseHashAtIndex(uint index) external view returns(bytes32) {\r\n        return ownedCourseHash[index];\r\n    }\r\n\r\n    function getCourseByHash(bytes32 courseHash) external view returns(Course memory) {\r\n        return ownedCourses[courseHash];\r\n    }\r\n\r\n    function getContractOwner() public view returns(address) {\r\n        return owner;\r\n    }\r\n\r\n    function setContractOwner(address newOwner) private {\r\n        owner = payable(newOwner);\r\n    }\r\n\r\n    function isCourseCreated(bytes32 courseHash) private view returns(bool) {\r\n        return ownedCourses[courseHash].owner != 0x0000000000000000000000000000000000000000;\r\n    }\r\n\r\n    function hasCourseOwnership(bytes32 courseHash) private view returns(bool) {\r\n        return ownedCourses[courseHash].owner == msg.sender;\r\n    }\r\n}  ",
  "sourcePath": "C:\\Users\\samue\\Videos\\gnosePlace\\contracts\\Gnose.sol",
  "compiler": {
    "name": "solc",
    "version": "0.8.15+commit.e14f2714.Emscripten.clang"
  },
  "schemaVersion": "3.4.8",
  "updatedAt": "2023-01-25T21:14:47.601Z",
  "networkType": "ethereum",
  "devdoc": {
    "kind": "dev",
    "methods": {},
    "version": 1
  },
  "userdoc": {
    "errors": {
      "CourseHasOwner()": [
        {
          "notice": "O curso j possui um dono!"
        }
      ],
      "CourseIsNotCreated()": [
        {
          "notice": "O curso no foi criado!"
        }
      ],
      "InvalidState()": [
        {
          "notice": "No h um estado vlido para o curso!"
        }
      ],
      "OnlyOwner()": [
        {
          "notice": "Apenas o dono poder fazer essa operao!"
        }
      ],
      "SenderIsNotCourseOwner()": [
        {
          "notice": "O remetente no  o dono do curso!"
        }
      ]
    },
    "kind": "user",
    "methods": {},
    "version": 1
  }
}